:1028000000800020B1280000A9280000A9280000AD
:1028100080B51448144B21E05C689968DD688C42EF
:102820000CD0002205E0A6180832D6E9008941E95B
:1028300002898C460831AA42F5D101E004EB050C6F
:102840001C696146002204E008320026002741E9A5
:1028500002670831A242F7D1143301380028DBD1D6
:1028600000F0A6FC010000009032000048F21013B6
:10287000C1F6FF731A780AB901201870704700BFBB
:1028800048F20810C1F6FF7008B503682BB140F29A
:102890000003C0F2000303B1984708BD80B500AF44
:1028A00000F066F8FEE700BF80B400AFFEE700BFAF
:1028B000014B1A70FFF7ACFFBC76004080B582B0C8
:1028C00000AF4EF60C53CEF2000340F20042C0F2CD
:1028D000FA521A604EF61453CEF200034EF614521A
:1028E000CEF20002126842F400721A604FF0000348
:1028F0007B6019E079687B68032B07D87A6842F619
:102900000003C0F2000353F8223003E042F6A903AB
:10291000C0F2000348F20002C1F6FF7242F8213013
:102920007B6803F101037B607B682F2BE2D947F2C0
:10293000BC63C4F200031B78DAB248F21213C1F68A
:10294000FF731A704EF60853CEF2000348F20002ED
:10295000C1F6FF721A6000F039FA48F20013C1F6AE
:10296000FF734FF000021A6007F10807BD4680BDF3
:1029700080B500AF48F21113C1F6FF731B78002B2E
:1029800008D100F00BF848F21113C1F6FF734FF0B5
:1029900001021A7000F060F880BD00BF80B582B0FF
:1029A00000AF46F27453C4F200031B78DBB223F08D
:1029B0003F03BB7146F27453C4F20003BA7942F08C
:1029C0000902D2B21A7046F29453C4F2000346F2DE
:1029D0009452C4F200021278D2B242F00102D2B292
:1029E0001A7046F29553C4F2000346F29552C4F2AF
:1029F00000021278D2B242F00102D2B21A704FF63F
:102A0000FF7000F03FF84FF6FF7000F059F847F202
:102A1000305000F065F84FF0000000F071F800F061
:102A2000A3F80346FB7146F29553C4F2000346F245
:102A30009552C4F200021278D2B242F01002D2B221
:102A40001A70FB79184600F093F800F02BF807F1A4
:102A50000807BD4680BD00BF80B400AF46F2745386
:102A6000C4F2000346F27452C4F200021278D2B2E9
:102A70006FEA42626FEA5262D2B21A70BD4680BCFF
:102A8000704700BF80B483B000AF0346FB8046F6BA
:102A90000823C4F20003FA881A8007F10C07BD4628
:102AA00080BC704780B500AF01E000F049F800F04D
:102AB00037F8034603F01003002BF6D180BD00BFAA
:102AC00080B483B000AF0346FB8046F68823C4F28F
:102AD0000003FA881A8007F10C07BD4680BC7047D6
:102AE00080B483B000AF0346FB8046F64823C4F2AF
:102AF0000003FA881A8007F10C07BD4680BC7047B6
:102B000080B483B000AF0346FB7146F28553C4F234
:102B10000003FA791A7007F10C07BD4680BC7047B4
:102B200080B483B000AF46F26553C4F200031B7853
:102B3000FB71FB79184607F10C07BD4680BC704756
:102B400080B400AF46F6A823C4F200031B889BB2F2
:102B50001846BD4680BC70470230800803D000BFD5
:102B600001380046FCD17047EFF3108072B6704711
:102B700080F31088704700BF80B582B000AF7860E6
:102B8000396078684FF000013A6800F0A7FA07F161
:102B90000807BD4680BD00BF80B584B000AFF860B7
:102BA000B9607A60F868B9687A6800F0CFF907F11F
:102BB0001007BD4680BD00BF80B487B000AF78600D
:102BC00039604FF00003FB604FF00003BB602CE066
:102BD000BB684FEA83027B6813441B683B613B6917
:102BE000FB753B6923F0FF033B6117E0FB684FEA8D
:102BF00043023B6813441B781A463B691344FA6846
:102C00004FEA42013A680A4452781A70FB6803F1AD
:102C10000103FB60FB7D03F1FF33FB75FB7D002BA4
:102C2000E4D1BB6803F10103BB60BB68052BCFD9BE
:102C300007F11C07BD4680BC704700BF80B582B05D
:102C400000AF44F28003C4F200034FF017021A8071
:102C500044F28203C4F200034FF018021A7044F2E7
:102C60000033C4F200034FF002021A7044F2000372
:102C7000C4F200034FF008021A7044F20023C4F2B9
:102C800000034FF003021A7044F2A163C4F2000380
:102C900040F20812C4F600121278D2B21A7044F24E
:102CA0002223C4F200034FF008021A8044F22023CA
:102CB000C4F2000341F251021A804FF00003FB718D
:102CC0004FF019033B6019E0FB794FEA4303DAB296
:102CD00044F22523C4F200031B78DBB203F00103A6
:102CE00042EA0303DBB203F00303FB714FF4F0701D
:102CF000FFF732FF3B6803F1FF333B603B68002B7B
:102D000002D0FB79032BDFD144F20403C4F20003A9
:102D10004FF480721A8044F20403C4F200034FF0AF
:102D200007021A7044F20603C4F200034FF00002D7
:102D30001A7044F20803C4F200034FF048021A70FC
:102D400044F20403C4F200034FF000021A7044F28C
:102D50000103C4F200034FF002021A7044F2A233DE
:102D6000C4F2000344F2A232C4F200021278D2B2DA
:102D700042F00102D2B21A7007F10807BD4680BDC9
:102D800080B483B000AF40F2CF13C4F600131B78B9
:102D9000FB7145F66E03C4F20003FA7902F00702F4
:102DA0001A7045F66F03C4F20003FA794FEA121263
:102DB000D2B21A7045F67603C4F200034FF0440213
:102DC0001A7007F10C07BD4680BC704780B582B011
:102DD00000AF72B64FF00003FB702FE0FA78134695
:102DE0004FEA430313444FEA43031A4643F23423A2
:102DF000C0F2000313447B607B681A7859784FEA6D
:102E0000012141EA020299784FEA014141EA0202B6
:102E1000DB784FEA036343EA02031A467B681979B9
:102E20005B794FEA032343EA01039BB2104619463C
:102E3000FFF7A2FEFB7803F10103FB70FB78082B80
:102E4000CCD940F20050C4F6000040F21851C4F64C
:102E50000001FFF7B1FE45F20303C4F2010345F29E
:102E60000302C4F201021278D2B242F00202D2B2DC
:102E70001A7045F21303C4F2010345F21302C4F2BF
:102E800001021278D2B242F00202D2B21A7044F2B7
:102E9000A033C4F2000344F2A032C4F2000212785C
:102EA000D2B242F04002D2B21A7044F2C233C4F23B
:102EB000000344F2C232C4F200021278D2B242F0ED
:102EC0001002D2B21A7045F23010C4F2000040F283
:102ED000EC51C4F600014FF00A02FFF75DFE44F228
:102EE0002233C4F2000344F22232C4F20002127808
:102EF000D2B242F00802D2B21A7044F60003C4F211
:102F000000034FF001021A70FFF798FE44F6000329
:102F1000C4F200036FF07E021A7040F20403C4F2A0
:102F200008034FF001021A70FFF72AFF44F2B03095
:102F3000C4F2000044F2A031C4F200014FF00E02CE
:102F4000FFF72AFE07F10807BD4680BD032A2DE9D9
:102F5000F0070BD83AB1002311F803C000F803C002
:102F600001339342F8D1BDE8F007704782180C4650
:102F7000034603E014F8011C03F8011C03F00306E8
:102F80001946A44601330134002EF3D11CF003048A
:102F9000634608BFC1EB020C68D06542C4F1040A65
:102FA0000CEB050733464FEACA0A5CF805604FEAA6
:102FB000C408551A08E057F8044F264604FA0AF4E4
:102FC00049EA0404CC5004335C18032D26FA08F9AE
:102FD000A5F104050CEB0306EDDC002302E0F15C37
:102FE000E154013319199142F9D3BCE753F8404C2D
:102FF00041F8404C53F83C4C41F83C4C53F8384CA9
:1030000041F8384C53F8344C41F8344C53F8304CB8
:1030100041F8304C53F82C4C41F82C4C53F8284CC8
:1030200041F8284C53F8244C41F8244C53F8204CD8
:1030300041F8204C53F81C4C41F81C4C53F8184CE8
:1030400041F8184C53F8144C41F8144C53F8104CF8
:1030500041F8104C53F80C4C41F80C4C53F8084C08
:1030600041F8084C53F8044C41F8044C1C460D46FA
:1030700040334031BCF13F0FACF1400CB6DC21468F
:103080002B46541B0FE051F8105C43F8105C51F8CC
:103090000C5C43F80C5C51F8085C43F8085C51F890
:1030A000045C43F8045C0F2C0D469C4601F11001B2
:1030B00003F11003A4F11004E5DCCCEB02010023C2
:1030C00003E0EC584CF8034004335E19032903EB8A
:1030D0000C04A1F10401F4DC7FE700BF032AC9B2AC
:1030E00030B407D822B10023C15401339342FBD13D
:1030F00030BC704700EB020C034601E003F8011CF2
:1031000003F003041A460133002CF7D14FF00133CA
:10311000C2EB0C0403FB01F31FE042F8403C42F811
:103120003C3C42F8383C42F8343C42F8303C42F8EF
:103130002C3C42F8283C42F8243C42F8203C42F81F
:103140001C3C42F8183C42F8143C42F8103C42F84F
:103150000C3C42F8083C42F8043C154640323F2CF7
:10316000A4F14004D9DC2A46C5EB0C0407E042F880
:10317000103C42F80C3C42F8083C42F8043C15462E
:1031800010320F2CA4F11004F1DC2A46C5EB0C051B
:1031900001E042F8043C14460432032DA5F1040575
:1031A000F7DC01E004F8011B6445FBD3A0E700BF96
:1031B00008B500F017F8074800B10068064901B1EA
:1031C00009680022FFF76AFB044B0BB1AFF30080E4
:1031D000FEE700BF0000000000000000000000004B
:1031E000FEE7000070B543F2782643F27825C0F27E
:1031F0000006C0F20005761BB61006D0002455F874
:10320000243001349847A642F9D843F2782543F296
:103210008026C0F20005C0F20006761B00F026F8FA
:10322000B61006D0002455F8243001349847A64241
:04323000F9D870BD9C
:10323400005100403000405100403000C051004077
:103244001000F05100401000000001400010001474
:103254000140000800400140000A004C0140000207
:103264000050014020000000F8B500BFF8BC08BCC5
:103274009E46704781280000BD280000F8B500BFB5
:10328400F8BC08BC9E4670476D2800000000000092
:10329400A83200000881FF1F080000000800000099
:0432A4000000000026
:0832A80000000000000000001E
:04000003000028B120
:00000001FF
