:4000000000800020E1010000A9220000A9220000A9220000A9220000A9220000A9220000A9220000A9220000A9220000A9220000A9220000A9220000A9220000A922000024
:40004000A9220000A9220000A9220000A9220000A9220000A9220000A9220000A9220000A9220000A9220000A9220000A9220000A9220000A9220000A9220000A9220000D0
:40008000A9220000A9220000A9220000A9220000A9220000A9220000A9220000A9220000A9220000A9220000A9220000A9220000A9220000A9220000A9220000A922000090
:4000C00080B51448144B21E05C689968DD688C420CD0002205E0A6180832D6E9008941E902898C460831AA42F5D101E004EB050C1C696146002204E008320026002741E9DE
:4001000002670831A242F7D1143301380028DBD102F0B2F8010000006826000048F24013C1F6FF731A780AB901201870704700BF48F20010C1F6FF7008B503682BB140F222
:400140000003C0F2000303B1984708BD094B00201B6810B5196800F0C8F8074B1B681B78181AC0B2984204D00020BDE8104000F071B810BD1481FF1F1881FF1F10B5FFF7A8
:40018000E5FF00F08DFB00F0DFF8D0B900F096F80446F0B9012000F07DF800F08FF820B90134A4B2652CF5D101E0632C11D90B4B402247F230501A7000F060FB43F69820D9
:4001C00005E041F2883000F059FB40F6C41000F05BFB00F037FB00F06FFAFEE7FA460040064B1C7844F001041C70054B1A78D2B2044B1A7000F096F8FFF762FFE84600408F
:40020000FA460040BC7600400B4A0C4B1A6008331A6842F400721A6000230949094A5958D1500433C02BF8D1074B1978074B1970074B1A6000F06ABB0004FA050CED00E0C7
:40024000000000000080FF1FBC7600405081FF1F08ED00E001BE7047044B00F01F021B68103253F8220043F82210704708ED00E000F01F0000F16040490100F56440C9B2AB
:4002800001707047024B1B79584300F00DBC00BF0481FF1F10B5044604E0D86800F004FCA4F50044B4F5004F034BF6D898686043BDE8104000F0F8BB0481FF1F024B1878B0
:4002C000C0F30010704700BF2151004000231A4606E010F803C00139624492B2013389B20029F6D1524290B270470B18002004E013F8012D01398018C0B20029F8D1704782
:40030000034B6FF07F021A708132043B1A707047FA460040024B01461B781A46126808475081FF1F064B1A7802F0C002802A06D1803A1A70034B186808B1FFF7EBBF7047D9
:40034000FA460040C1FF03001A4B10B51A88043318680132120200231018194609E012F801CB0CF1FF34E4B26344FD2C98BF0121DBB28242F3D30F4A0F4C1288A0420CBFE6
:400380004FF40040C0080132520106E002F1904494F800C001326344DBB28242F6D3064A5B421278DBB2934202D109B1002010BD062010BDC5FF0300C0FF030013B50123C4
:4003C0000C46ADF806200B7048708A7091B20B0A0431E370204689B2FFF778FF02AA32F8021D63181871000A587107311720987189B22046962300F091F91CBD2DE9F04787
:400400000028ADF5607D14BF81464FF0FF0914BF0024012400F00AFA62B64FF0000845464CAEDEAA063230464FF496714B4600F0A1F9102800F00A81052800F00781BDF898
:400440007E33062B40F2FD803278012A40F0F980B6F802A01FFA8AFA0AF10401775A0AF107029A42BFB200F294800AEB06039B79172B40F0E680304689B2FFF727FF8742D8
:4004800000F0E8800820DDE0002C00F0DA80BAF1000F40F0D580FFF757FF4CABD0F1010038BF0020187101245046BCE0002C00F0C880BAF1010F40F0C380032F03D9544614
:4004C00000200422BFE00FB1002204E0744B1B681A68120A92B24CAB1A71120A5A714FF0FF329A7101240432DA7100201219AAE01CB1BAF1030F40F0A38001A800214FF4E4
:40050000907201F04FFE4FF49075002C00F09980BAF1020F40F294804CAC01A84019E11DAAF10302554401F075FDADB240F223139D4203D001240025032023E0B4F805408E
:40054000A4B2B8F1000F0FD197AD41464FF49072284601F027FE0320FF212A464FF4907300F0B2FA08F101083846214601AA4FF4907300F0A9FA054608B9012402E00124C1
:4005800000250A202A465EE005EB0A06B6F5967F01D9032056E001A8401952464DA901F039FD0020B5B202464DE0BAF1000F48D13C4A97AB92E803004DAA83E803000124F6
:4005C00082E80300504608223DE0002C39D0BAF1030F35D14CABB3F805404FF48071A4B204EB07200002FFF780FE7B0303EB441303F1904303F1200213F8011B0818934200
:40060000C0B2F9D1032F09D1FF2C07D1264B1B78C01A264B1B78C01A00F0FF0040424CAB18710124002022460DE0FFF78DFE18B91F4B6FF07F021A701E4B01221A7005E007
:400640000124042000224CA9FFF7B8FE002C7FF4E7AE21E073783779313B0A2B1AD801A252F823F089040000AD04000095060000F10400009106000095060000890500007D
:40068000AB0500000B050000CB0500002B0600000025DBE70520D5E70DF5607DBDE8F0871481FF1F04230000D0FF0300D1FF0300FA460040F646004010B5154C002023686A
:4006C0001968FFF712FE63681B78181AC0B2984209D123681B6833B100F080FA18B90D4800F038FA10B10020FFF7B4FDFFF72CFE28B9094B1B7803F0C003402B04D1064B62
:4007000000201870FFF77AFEBDE81040FFF7F8BD1481FF1F5481FF1FFA460040844670B502200D461446614640221E4600F09AFB0A235E430C4B1E80002604E00136012008
:40074000B6B2FFF7A7FD022000F06EFB18B9064B1B88B342F2D8022000F066FB08B9103070BD2580002070BD4281FF1F012000F0C3BB00002DE9F0410D460A2114464B43C8
:40078000294A064697781380F7B1002703E00120FFF780FD474600F037FB40B9224B07F101081B881FFA88F8BB42F0D8474600F02BFBC8B100F02EFBFFF7D8FF1A4B0022F2
:4007C0009A7011E000270FE000F024FB0028F9D000F01AFB0028F5D0FFF7C8FF04E001370120BFB2FFF756FD012000F01DFB012803D00D4B1B88BB42F1D8012000F014FB3C
:4008000001280AD13146402D34BF2A46402200F087FB20800020BDE8F0814FF0000323801020BDE8F08100BF4281FF1F08B562B60020022100F072FC014B01229A7008BD44
:400840004281FF1F024B1A7842F080021A70704775650040014B1880704700BF086A004001E0044B1B88044B1B7813F0100FF8D1704700BFA86A004064650040014B188048
:40088000704700BF886A0040014B1880704700BF486A0040014B1870704700BF8465004010B5164B164C1A784EF6602002F0C00242F00B021A70237843F001032370114BB5
:4008C0001A7842F001021A70FFF7C4FF4EF66020FFF7D4FF47F23050FFF7D6FF0020FFF7D9FF00F0E9F8237843F01003237000F0E7F8BDE81040FFF7B3BF00BF75650040A5
:40090000946500409565004001F084BB70B572B64B4C04F1300560782178237941EA0021A078627941EA0041E07843EA022241EA00600634002101F035FCAC42EBD10025CE
:400940002A46404B58594433C1B203EB420320F0FF000C4607E013F802CC13F801EC013C0CF800E0E4B20233002CF4D104355218442DE6D1344B354E1A78354842F00202A6
:400980001A7010331A78334942F002021A70337843F040033370304B1A7842F010021A700A22FFF7B1FF0A222C482D49FFF7ACFF08222C482C49FFF7A7FF2C4B4FF003010B
:4009C0001A78482042F008021A70294A01231370284B19801B2102331970274B15391970264B4C311970264B1978264B1970264B07211C80197025490C70023108701C707C
:400A000005331C700221083B1970214B2148197841F0010119706FF07E0313701E4B1F4A1B7803F0070111701B09013213701C4B31460E221D70BDE8704001F0EBBA00BF7E
:400A40000C2300003C23000003500140A0430040F051004070240000C2430040205100407C24000032510040882400002243004000480040804000400043004000420040E5
:400A80000F010049A14600400440004006400040A2430040B0430040CF0100496E58004076580040000000000230800803D000BF01380046FCD17047EFF3108072B6704787
:400AC00080F31088704700BFF8B504460D4617461E4600F01BF908B1042635E032462046394600F085F8072806462BD102E00120FFF7C8FB154B1A7812F0020FF7D01A7813
:400B000012F0020F1CD01B789B0819D1104B20461A7829465B7800F099F80728064611D102E00120FFF7AEFB084B1A7812F0020FF7D01A7812F0020F02D01E78B60801D026
:400B40004FF0FF3600F0C8F83046F8BD224700407482FF1F38B5044600F0FCF80CB9012038BD00F0D3F8054608B1042038BD034B1C6000F0B1F8284638BD00BF4881FF1F2F
:400B800010B500F0E7F800F0C1F808B104241EE0012000F085F8072815D102210D4800F0EDF802280AD102E00120FFF76BFB0A4B1B7813F0020FF7D0002406E0064B1B7814
:400BC00013F0020FE9D04FF0FF3400F085F8204610BD00BF7482FF1F2247004010B5FFF7CFFF18B9BDE81040FFF7CABF10BD000010B5144B93F800C01CF0020F01D104207D
:400C000010BD114C6FF0490C84F800C00CF11F0C84F800C00CF12D0C84F800C01B7813EA0C0301D0092010BD207005E011F803C00548013380F800C098B29042F6D3072058
:400C400010BD00BF224700402047004030B5124D95F800C01CF0020F01D1042030BD0F4C6FF0490C84F800C00CF1220C84F800C00CF12D0C84F800C095F800C01CF0020F79
:400C800001D0092030BD2070080AC9B22070217007202270237030BD22470040204700400B4A137813F0020F01D104207047094B6FF0490119702B3119702D311970127809
:400CC00012F0020F01D009207047187007207047224700402047004010B5FFF7EDFE094B002259781A70012908D107490C6844F001040C6000BF00BF00BF5A70BDE810409B
:400D0000FFF7DEBE4C81FF1F0400084010B5FFF7D3FE0E4B197809B1042412E04FF0010C0B4A83F800C0146814EA0C0409D0146824F00104146000BF00BF00BF83F801C0DF
:400D40000C46FFF7BDFE204610BD00BF4C81FF1F0400084010B5FFF7AFFE074B1A7842F008021A7010331A7842F008021A70BDE81040FFF7A5BE00BFA043004070B50446FB
:400D80000E4600250BE00120FFF77CFA064B1B7813F0010FF7D0054B1B7863550135EBB2B342F3D3304670BD22470040204700400C4B01221A700C4A002313700B4A137090
:400DC0000B4A13700B4A13700B4A13700B4A13700B4A13700B4B03221A70833A203B1A70704700BF1883FF1F9282FF1F9182FF1F8D82FF1F9082FF1F7882FF1F8F82FF1FDE
:400E00000983FF1F28600040014B1878704700BF9182FF1F034B1A78104612B1002218781A7070479082FF1F024B0C2202FB0033587870479C82FF1F431EDBB2072B01D939
:400E4000002070471B01064ADBB2985C01329B5C00F0070043EA0020023880B2704700BF0C600040431EDBB2072B30B53BD81E4D4FF00C0C0CFB0055B5F806C01B011B4C86
:400E80001FFA8CFCDBB2CCF5007C1C19624503D9EA88C2F5007292B2134D4FF00C0C0CFB005595F803C0124D4CEA122C03F805C05FFA82FC013503F805C059B14FF0000C18
:400EC00004E011F80C500CF1010C25701FFA8CF59542F6D3044A0C2101FB0020002242704179044A995430BD9C82FF1F886000400C6000400E600040431EDBB2072B0AD8C3
:400F0000054A0C2101FB0020002242701B014179024ADBB2995470479C82FF1F0E600040F8B5431EDBB2072B04460D46164616D8A9B11B010B4FDBB2DF19FFF77DFFB0429B
:400F400038BF0646B6B2002302E03A78EA5401339AB2B242F9D32046FFF7CEFF00E000263046F8BD88600040194B012210B51A70184B4FF400041C604FF080741C601A60EA
:400F800092181A60144B4FF0000C83F800C001B10322124B1A70124B124A187000231370114A01201370114A1370114A1370114A1370114A1370114B03221A70833A203BE9
:400FC0001A70FFF771FD0E4B04221A7010BD00BF1883FF1F00E100E09282FF1F096000408C82FF1F9182FF1F8D82FF1F9082FF1F7882FF1F8F82FF1F0983FF1F28600040A6
:40100000126000402DE9F041FFF756FD384B01241A78022642F001021A7010331A78354D42F001021A70344B07461C70943B1E7007331A78002002F07F021A70FFF722F988
:401040002B78204603F0F9032B702C4B1A7802F0DF021A702B7823432B70FFF713F92820FFF710F9264B30461A7802F07F021A701A7802F0BF021A702B7833432B70FFF79B
:4010800001F92B78384643F004032B701D4B00251D701B191D70FFF713FD17201A49FFF7DBF817200721FFF7E3F815201749FFF7D3F815200721FFF7DBF818201449FFF7C5
:4010C000CBF818200721FFF7D3F828461149FFF7C3F807212846FFF7CBF820460E49FFF7BBF820460721BDE8F041FFF7C1B800BFA5430040944300409D600040126000401E
:40110000F851004084600040DB150000D9150000D114000069150000A115000070B5074E054633780C461BB9FFF76CFF0123337028462146BDE87040FFF716BF4E81FF1F6B
:40114000204B21491A8809788A1892B21A801F4B00221A7012E01078596800F1804011F801CB00F5C04080F800C0596011780131C9B211701A88013A92B21A80144B1A88C7
:401180001AB1124A11780729E5D9104B1B781BB90D4B1B78082B0BD10E4B1A7882F080021A700D4B0F221A700C4B0D3A1A7004E0094A02231370094A1370044B1A78024B4E
:4011C0001A7070470C83FF1F0983FF1F0A83FF1F8082FF1F8E82FF1F7982FF1F9282FF1F074B02221A70074B823A1A70064B8F321A70064A00231370054A0120137070473F
:401200009282FF1F8E82FF1F7982FF1F0983FF1F0A83FF1FFFF794BF164B174A1B78174803F00F03023BDBB21370154B19881278521892B21A800DE0596810F801CB01F843
:4012400001CB596011780139C9B211701A88013A92B21A800B4B1A881AB1074A11780029EAD1094B1A7882F080021A70074B0B221A707047296000400A83FF1F00600040B6
:401280000C83FF1F8082FF1F8E82FF1F7982FF1F064A06231370064A01201370054B6FF07F021A70044B80321A7070479282FF1F7982FF1F8E82FF1F0A83FF1F054B9A68B8
:4012C0003AB19A68044910709A680988518000229A6070478082FF1F0C83FF1F08B50A4B1A7832B11978094A41F08001117000221A70074B00221A700120FFF7DFFF054BA3
:4013000003221A7008BD00BF7882FF1F086000409282FF1F7982FF1F08B5054B00221A700120FFF7CBFF034B03221A7008BD00BF9282FF1F7982FF1F074B1B78042B05D020
:40134000062B05D0022B05D1FFF764BFFFF7E4BFFFF7C4BF704700BF9282FF1F08B50849084B01201A8809788A1892B21A80064B00221A70FFF7A2FF044B03221A7008BD15
:401380000983FF1F0C83FF1F9282FF1F7982FF1F10B50B4B1B78042B07D0062B09D0022B0DD1BDE81040FFF7D9BFBDE81040FFF733BF0320FFF782FF024B03221A7010BDFF
:4013C0009282FF1F7982FF1F054A4FF000031380044A916819B191680B709268538070470C83FF1F8082FF1F08B50C4B04221A700B4B843A1A70FFF7E7FF0A4B1A78013B47
:401400001B7843EA0222084B198889B2914288BF1A80064B0B221A70012008BD9282FF1F8E82FF1F076000408082FF1F7982FF1F10B50E4C238813B9FFF7D2FE14E00C4B10
:4014400002221A700B4B023A1A70FFF7BDFF0A4B1A78013B1B7843EA0223228892B29A4288BF2380FFF76CFE012010BD8082FF1F9282FF1F8E82FF1F0760004008B5114BA6
:401480001A781A701B7813F0800F02D00E4A137008BD0220FFF712FF0C4B1B7803F06003202B05D0402B06D043B900F031FC04E000F088FD01E000F077FD10B9024B0322BD
:4014C0001A7008BD286000407982FF1F0060004008B5204B1B7813F0100F39D013F0800F0BD003F00F03012B32D1FFF7C7FF1A4B1B7813F0800F0BD008BD13F0400F02D08B
:40150000FFF71AFF04E013F0200F21D0FFF740FF104B1B7813F0800F1AD1104B104A1B78127842EA03030F4A1370127893420FD10949084B0A78187810F0800F04D10A7839
:401540001A701A7802F00F02034B1B789A42EFD108BD00BF286000407982FF1F8E82FF1F0A83FF1F296000400A4B1B780A4B1A7B02F00302012A03D0DA7B82F08002DA736B
:40158000054B01225A73054B1A7802F0FE021A70704700BF0E6000409C82FF1F0B6000400A4B1B780A4B1A7E02F00302012A03D0DA7E82F08002DA76054B01225A76054B89
:4015C0001A7802F0FD021A70704700BF1E6000409C82FF1F0B6000407047FFF7E9BB000010B5174C4FF000032380164B18780138C0B200F097F9144B1A7801331B7800EBA6
:40160000C3004169D3B9114B013A1B7801EBC3035968D3B2022B11D80D4B01EBC2001B7811F832209A4209D30C225A4341688B1858688A5A9B6860602280A36010BD00BF1E
:401640008082FF1F9182FF1F036000407C82FF1F0260004008B50D4B18780138C0B200F061F90B4B0B491B7800EBC3004269CB5C02EBC3035B68DB69597813F8022B42EA72
:401680000121054A1180536008BD00BF9182FF1F046000407C82FF1F8082FF1F08B50B4B18780138C0B200F03DF9094B09491B7800EBC3004269CB5C02EBC3035B685A6A79
:4016C000054B117819805A6008BD00BF9182FF1F046000407C82FF1F8082FF1F10B53D4B3D4A1B78117811F0800F35D001321278013A052A6CD8DFE802F01017276B6B0359
:40170000364B1A78212A02D1FFF7C8FF07E01B78222B5DD1FFF79EFF01E0FFF761FF304B1B88002B54D00BE0002B51D12D4B1B78002B4DD12A4B4FF001021A802A4A5A6084
:40174000BDE81040FFF774BE002B41D1244B4FF001011980254AF2E7127812F0800F37D1234A1278092A05D032D30A2A0CD00B2A2ED121E0FFF734FF194B1B88002B27D0C0
:40178000BDE81040FFF730BE002B21D1154B1B781946002B1CD1114B134A1B781370154B92F800C01878844501D219700CE01978012909D9127806E053B90A4B1A78012A84
:4017C00006D81A78094B1A70BDE81040FFF760BD002010BD0460004000600040036000408082FF1F026000401083FF1F1883FF1F016000401483FF1F037810B5012B1ED9DA
:401800004378032B1BD10022013B15E002F1924101F5807191F800C009494FEA1C140C5D0CF00F0CC45411F80C109C1C0132E4B20433D2B20155DBB201789942E6D810BD14
:401840009024000010B5002301212C4A0C209A1810702B4A00FB012254793CB1127912F0800F284A08BF08209A1803E0254A6FF07F009A181070224A4FF00C0C0CFB01220B
:40188000B2F808C020481FFA8CFC18184FEA1C2C80F800C0B2F808C01C485FFA8CFC181880F800C0B2F806C019485FFA8CFC181880F800C0B2F806C016481FFA8CFC1818EC
:4018C0004FEA1C2C80F800C0B2F806C012485FFA8CFC181880F800C0D28801310F4892B2C9B21818120A103309290270DBB2ACD10B4B4FF0FF321A7010BD00BF8060004041
:401900009C82FF1F0E6000400C6000400D600040866000408760004084600040856000400A600040044B1A78044B03EBC2035B6803EBC003D86870478C82FF1F3C26000048
:40194000F8B53D4B1A78002A74D018780138C0B2FFF7E8FF90F808C0C4684FEACC0C002066E0235C354A3649D55CC95C8D425ED02118D25C4D78954259D1324A127893424F
:4019800055D1CD788A7805F00305012D14BF0025012512F0800F02F07F032B4A09D00C2606FB03220B3E5670002D14BF07250D2508E00C2606FB03220C3E5670B54214BF3F
:4019C0000525092555715A1E1201204DD2B2551901262E700B365E431B4D8F8873191F818F781F71C97871550021D9701D891849ADB251182D0A0D701D891649EDB25118F5
:401A00000D70DD881449EDB251180D70DD881349ADB251182D0A0D70DD881149EDB251180D70DB880F499BB251181B0A0B700830604596D1F8BD00BF9182FF1F7C82FF1F4B
:401A40000883FF1F046000409C82FF1F0E6000400C6000400D6000408660004087600040846000408560004008B5064B18780138C0B2FFF757FF43681B7900EBC300406915
:401A800008BD00BF9182FF1F2DE9F04100214FF00C0C0CFB01FC524C00230CEB040201310CF80430092902F1080493705370D37053711381A370EAD118B14A4A13704A4AB2
:401AC00013704A4B1A78002A00F0888018780138C0B2FFF727FF43684FF0000CDB7913F0400F434B1A7814BF42F0010202F0FE021A70047AC168E700002241E0881890F88A
:401B000002E00EF07F05AB4239D1354D0C2606FB0355B5F8088086881FFA88F8B04538BF2E818D5C2F4E755D4678AE4227D1C5782B4805F00306012E14BF002601264FF0AC
:401B40000C081EF0800F08FB030008D0A8F10B0880F80180002E14BF07260D2607E0A8F10C0880F80180464514BF0526092646710C2673431A481E1886F804E01D54083247
:401B8000BA420CF10103B9D1082B9C46B3D1E40000230CE0CA189278114D02F07F024FF00C0C0CFB0252C85C083290700833A342F0D1FFF759FF0F4B186000231A46084970
:401BC00001330C2000FB0311CA8009895218082B92B2F4D1BDE8F041FFF734BEBDE8F0819C82FF1F7C82FF1F0883FF1F9182FF1F8F82FF1F9882FF1F10B50C4B1C780C4B80
:401C000018780138C0B2FFF78DFE43681B79A34209D944B9074B084A197801201170074A12781A7010BD002010BD00BF046000409182FF1F7C82FF1F0883FF1F02600040F4
:401C4000194B1B7803F07F035A1ED2B2072A01D90020704715480C2101FB03039878120100F0FE0098700020D8701148D2B212F800C00CF07F0C02F800C0587800F0FD0068
:401C8000587018795B7810F0800F03D0012B18BF0D2104E0012B01D1082100E00921054BD154FFF7F5BA00BF046000409C82FF1F0C6000400E600040124B197801F07F01DE
:401CC0004A1ED2B2072A01D9002070470E4B0C2000FB01339978120141F0010199700021D9705978D2B241F0020159701B7913F0800F064B14BF6FF072016FF07601D1542F
:401D0000FFF7C6BA046000409C82FF1F0E60004010B5754B4FF000021A80744B1B7813F0800F734B1B7800F093800A2B00F23081DFE813F05C002E012E012E012E012E011E
:401D40000B002E017E002E0184006A4B1A78012A0BD1694B1A78694B03EBC2035B685A68614B5A604FF012020FE01A78022A11D1634B1878FFF7D6FD5B4B42685A605A685D
:401D8000D1785A68927842EA01221A80BDE81040FFF74EBB1B78032B24D15A4B002203E0197801325B18D2B255490978914202D919780029F4D1524A117851B1524912787E
:401DC000097C914205D1514B51481B78FFF714FD4F4B1A78002A00F0DB801978424A11805360D3E7BDE8104000F0ECB83F4B1A7812F0030211D0022A40F0CA803A4904333D
:401E00000A801B78434A03F07F030C2000FB03239A78414B1A70002207E033494FF002030B803E4B18783C4B18705A704B60ADE72D4B4FF001021A80394A07E02A4B4FF017
:401E400001021A80374A384912788A185A609DE7013B0A2B00F29C80DFE813F02C009A0070009A000B009A009A009A000F009A001900234B1A782D4B79E0214B01201A78B5
:401E8000274B1A702A4B1870FFF7FEFD7CE0FFF7B3FE00287CD0234B264C1B7801222370234B1A70FFF74CFD23781F492278895C214A68E00D4B1B7803F00303012B58D0F4
:401EC00009D3022B64D10E4B1B78002B60D1BDE81040FFF7B5BE0A4B1B78012B58D10F4B1A7802F0FD0242E08082FF1F0060004001600040036000408C82FF1F3C26000030
:401F000002600040E0240000A02400004F81FF1F1C81FF1F9C82FF1F1C83FF1F8F82FF1F9182FF1F046000407C82FF1F7882FF1F9082FF1F8D82FF1F0883FF1F154B1B7864
:401F400003F00303012B14D009D3022B20D1124B1B78002B1CD1BDE81040FFF7ADBE0E4B1B78012B14D10D4B1A7842F002021A700AE00B4B1A785AB91B780A4A0648D15C12
:401F8000007821EA0001D154BDE81040FFF780B9002010BD00600040026000408F82FF1F046000409482FF1F044B1B7813F0800F1CBF034B1B780020704700BF00600040B8
:401FC000016000400F4B1B7803F00303012B03D0022B04D000230CE00B4B1B7809E00A4B0A4A1B780C2103F07F0301FB032308339B78074A1268D35C032B01D0002070475B
:40200000FFF76CBB00600040046000409C82FF1F9882FF1F032A2DE9F0070BD83AB1002311F803C000F803C001339342F8D1BDE8F007704782180C46034603E014F8011CB3
:4020400003F8011C03F003061946A44601330134002EF3D11CF00304634608BFC1EB020C68D06542C4F1040A0CEB050733464FEACA0A5CF805604FEAC408551A08E057F8DC
:40208000044F264604FA0AF449EA0404CC5004335C18032D26FA08F9A5F104050CEB0306EDDC002302E0F15CE154013319199142F9D3BCE753F8404C41F8404C53F83C4C0C
:4020C00041F83C4C53F8384C41F8384C53F8344C41F8344C53F8304C41F8304C53F82C4C41F82C4C53F8284C41F8284C53F8244C41F8244C53F8204C41F8204C53F81C4C40
:4021000041F81C4C53F8184C41F8184C53F8144C41F8144C53F8104C41F8104C53F80C4C41F80C4C53F8084C41F8084C53F8044C41F8044C1C460D4640334031BCF13F0F1A
:40214000ACF1400CB6DC21462B46541B0FE051F8105C43F8105C51F80C5C43F80C5C51F8085C43F8085C51F8045C43F8045C0F2C0D469C4601F1100103F11003A4F110044B
:40218000E5DCCCEB0201002303E0EC584CF8034004335E19032903EB0C04A1F10401F4DC7FE700BF032AC9B230B407D822B10023C15401339342FBD130BC704700EB020C88
:4021C000034601E003F8011C03F003041A460133002CF7D14FF00133C2EB0C0403FB01F31FE042F8403C42F83C3C42F8383C42F8343C42F8303C42F82C3C42F8283C42F81A
:40220000243C42F8203C42F81C3C42F8183C42F8143C42F8103C42F80C3C42F8083C42F8043C154640323F2CA4F14004D9DC2A46C5EB0C0407E042F8103C42F80C3C42F8DF
:40224000083C42F8043C154610320F2CA4F11004F1DC2A46C5EB0C0501E042F8043C14460432032DA5F10405F7DC01E004F8011B6445FBD3A0E700BF08B500F017F80748D3
:4022800000B10068064901B109680022FDF776FF044B0BB1AFF30080FEE700BF000000000000000000000000FEE7000070B542F2506642F25065C0F20006C0F20005761B5A
:4022C000B61006D0002455F8243001349847A642F9D842F2506542F25866C0F20005C0F20006761B00F0AEF9B61006D0002455F8243001349847A642F9D870BD7100000072
:40230000002800006970122E00000101005100402000405100403000C0510040100000000140001000140140000800400140000A004C014000020050014020000145004048
:4023400003520040016500403D1401401C150140011701400119014003400140024101400242014002430140034701400348014004490140024C01400250014001510140FD
:402380007E02141018027C40842D0801340138083E104020410449FF4AFF4BFF4DA04F045018542558045A045B045F01604062C06440654066C068C06AC06CC06EC0940893
:4023C0009C0EA40EAE03B008B204B401B602C020C104C5D0C602C710C82EC9FFCAFFCBFFCDAFCE0FCF04D018D280D804DA04DB04DF01E040E2C0E440E540E6C0E8C0EAC0E9
:40240000ECC0EEC000100E200F021620178018141C021D201E6041204280452046804D0256A0570159025A446004778084018684C002C2A0C4A0D0A5D60BD804EE0AEE0AA9
:4024400033803640CC30A640A780A640A780A640A78008080F40C20CAE40AF80EE5057208720D440E610AC08AF4010011A01000A0000000000000000C000000010001000A7
:4024800000000000000000000002020002000000303132333435363738394142434445461201000200000008B4043BF100010104800100000902290001010280FA0904002D
:4024C0000002030000030921110100012224000705010340000107058203400001000000040309042C0343007900700072006500730073002000530065006D0069006300F1
:402500006F006E0064007500630074006F0072002A0343006F006E00660069006700750072006100740069006F006E002000300078003000300030003100220349006E0043
:402540007400650072006600610063006500200030007800300030003000310026034B0069007400500072006F006700200042006F006F0074006C006F0061006400650056
:402580007200000002030000240005FF0900A1010900A1010900150025FF7508954091020900150025FF750895408102C0C00000410000002883FF1F2483FF1F4100000058
:4025C0006C83FF1FB083FF1F00000000B025000000000000BC2500000000000000000000010000008825000001000000C624000001000000C82500000000010340000300F9
:4026000000008203400003000300000001000000B424000002000000F825000001000000F0250000000000000826000001000000A0240000010000000C260000010000009A
:402640002C260000F8B500BFF8BC08BC9E4670473101000009020000F8B500BFF8BC08BC9E4670471D01000000000000802600000080FF1F400100007802000000000000B0
:40268000000000000000000000000000000000000000000000000000000000000000000000000000000000000000000000000000000000000000000000000000000000001A
:4026C00000000000000000000000000000000000000000000000000000000000000000000000000000000000000000000000000000000000000000000000000000000000DA
:402700000000000000000000000000000000000000000000000000000000000000000000000000000000000000000000000000000000000000000000000000000000000099
:402740000000000000000000000000000000000000000000000000000000000000000000000000000000000000000000000000000000000000000000000000000000000059
:402780000000000000366E0118000000C05D00000000E02E00230000FC220000220300000000000000000000000000000000000000000000000000000000000000000000CB
:4027C00000000000000000000000000000000000000000000000000000000000000000000000000000000000000000000000000000000000000000000000000000000000D9
:402800000080002011280000012E0000012E000080B500AF00F0F8FA10B5054C237833B9044810B10448AFF300800121217010BD3881FF1F00000000D072000008B5064BDC
:402840001BB106480649AFF300800648016811B1054A02B1904708BD00000000D07200003C81FF1F0881FF1F0000000080B582B000AF786039603B6878684FF000011A4648
:4028800004F0FFFC07F10807BD4680BD80B500AF49F2E410C1F6FF704FF05001FFF7E6FF80BD00BF80B500AF49F2E410C1F6FF7004F0EFFC034603F1010349F29410C1F653
:4028C000FF7049F2E411C1F6FF711A4604F0D0FCFFF7DCFF80BD00BF2DE9B0438AB000AF49F29113C1F6FF734FF000021A7000F0B3FD00F055FF00F03DFF01F0D3F801F0A3
:40290000BBF801F0E7FA47F2D423C0F200031B6803F1FF33BB6147F2D423C0F200031B6819460A464FF000034FEA52714FEAC30941EA09094FEAC20847F2D423C0F20003E9
:402940001B6819460A464FF000034FEA52714FEAC3050D434FEAC20447F2D423C0F200031B6803F107034FEAD3034FEAC303ADEB030D6B4603F100037B614FF000033B6218
:402980007A6947F2D423C0F200031B6810464FF000011A4604F075FC07F108034FF0000019464FF0090201F033FC62B648F20C10C1F6FF7047F2D821C0F2000101F0ACFB55
:4029C00078624FF00003FB6100E000BF49F29113C1F6FF731B78012B30D1786A01F0D6FA48F20C10C1F6FF7047F2DC21C0F2000101F092FB7862786A4FF000014FF0000235
:402A000001F056FA786A00F0B7F9786A01F0BEFA4FF0050000F034FE48F20C10C1F6FF7047F2D821C0F2000101F076FB786249F29113C1F6FF734FF000021A7000F04EF93B
:402A400000F01AFF0346FB7448F21A13C1F6FF731B78FA7C9A4205D14FF00103FB614FF000033B6247F2D423C0F200031B683A6A9A4203DB4FF000033B62A6E7FB7C0D2BEB
:402A80005ED13B6A052B54DD7B69184647F2E021C0F200014FF0060204F003FC0346002B47D17B69DB7A3B717B691B7B7B7107F10403184600F05EF80346002B39D03B6ADC
:402AC00003F1FF333B627A693B6A786A11461A4601F07EFC49F29413C1F6FF731B78002B0FD049F29410C1F6FF7004F0D2FB0346786A49F29411C1F6FF711A4601F068FC32
:402B00000EE048F25413C1F6FF731B6803F1FF33786A49F2E411C1F6FF711A4601F058FC786A47F2E821C0F200014FF0010201F04FFC4FF00003FB614FF000033B6244E759
:402B4000FB69002B7FF741AFFB7C002B3FF43DAFFB7C0A2B3FF439AFFB7C0D2B3FF435AF7A693B6AD318FA7C1A703B6A03F101033B622AE780B485B000AF78604FF0000322
:402B8000FB607B681B781A4613464FEA83039B184FEA4303A3F5F0727B6803F101031B78A3F13003D318BB6048F25C13C1F6FF731A68BB68D31A042B09DC48F25C13C1F68D
:402BC000FF731A68BB68D31A13F1040F08DA48F25C13C1F6FF73BA681A604FF00103FB60FB68184607F11407BD4680BC704700BF80B500AF48F25413C1F6FF731B684F2B98
:402C000009DD48F25413C1F6FF734FF000021A60FFF73CFE61E049F29013C1F6FF731B780A2B06D049F29013C1F6FF731B780D2B1CD149F2E413C1F6FF731A7847F2EC231F
:402C4000C0F200031B789A4201D1FFF72BFE48F25813C1F6FF734FF000021A6048F25413C1F6FF734FF000021A6036E048F25813C1F6FF731B68002B2FDD49F29013C1F6FE
:402C8000FF731B78002B28D049F29013C1F6FF731B780A2B21D049F29013C1F6FF731B780D2B1AD048F25413C1F6FF731A6849F29013C1F6FF73197849F2E413C1F6FF7331
:402CC000995448F25413C1F6FF731B6803F1010248F25413C1F6FF731A6080BD80B500AF00F06EFF03461A4649F29013C1F6FF731A7049F29013C1F6FF731B783A2B15D1C2
:402D000048F25813C1F6FF734FF001021A6048F25413C1F6FF734FF000021A6049F29113C1F6FF734FF000021A701BE049F29013C1F6FF731B78422B14D148F25813C1F66E
:402D4000FF734FF001021A6048F25413C1F6FF734FF000021A6049F29113C1F6FF734FF001021A7049F29113C1F6FF731B78002B01D1FFF73DFF80BD80B584B000AF7860D5
:402D8000FFF784FD2DE0786849F2E411C1F6FF714FF0500201F031FA0346BB60BB68002B1FDD4FF00003FB6011E049F2E413C1F6FF73FA689B181B78184600F069FF4FF077
:402DC000020000F05DFCFB6803F10103FB60FA68BB689A42E9DBFFF759FD4FF0140000F04FFC786801F066F80346002BCBD04FF03E0000F04DFF07F11007BD4680BD00BFCE
:402E000080B400AFFEE700BF80B586B000AF40F20103C0F200037B6147F27843C0F200033B6140F20103C0F200037B6147F27843C0F200033B613BE03B691B68FB603B6998
:402E40005B68BB603B699B683B604FF000037B600FE0FB681A68BB681A60BB6803F10403BB60FB6803F10403FB607B6803F104037B607A683B689A42EBD13B69DB683B605A
:402E80004FF000037B600BE0BB684FF000021A60BB6803F10403BB607B6803F104037B607A683B689A42EFD13B6903F110033B617B69002B0CBF00230123DBB27A6902F14E
:402EC000FF327A61002BB7D104F0ACF9FFF704FDFEE700BF80B582B000AF4EF60C53CEF200034FF48062C0F2FA521A604EF61453CEF200034EF61452CEF20002126842F43C
:402F000000721A604FF000037B6019E07B68032B07D842F60003C0F200037A6853F8223003E042F60163C0F2000348F20002C1F6FF72796842F821307B6803F101037B6076
:402F40007B682F2BE2D947F2BC63C4F200031B78DAB248F20413C1F6FF731A704EF60853CEF2000348F20002C1F6FF721A6000F06DF948F20013C1F6FF734FF000021A605E
:402F800007F10807BD4680BD80B582B000AF7860396078684FF000013A6804F072F907F10807BD4680BD00BF80B584B000AFF860B9607A60F868B9687A6804F059F907F118
:402FC0001007BD4680BD00BF80B483B000AF0346FB71FEE780B487B000AF786039604FF000033B614FF000037B612CE07B694FEA83037A68D3181B68BB60BB68FB73BB68B6
:4030000023F0FF03BB6017E03B694FEA43033A68D3181B781A46BB68D3183A694FEA420239688A1852781A703B6903F101033B61FB7B03F1FF33FB73FB7B002BE4D17B6985
:4030400003F101037B617B69162BCFD907F11C07BD4680BC704700BF80B582B000AF4FF48143C4F200034FF000021A8044F28203C4F200034FF058021A7044F28403C4F224
:4030800000034FF017021A8044F28603C4F200034FF018021A7044F28803C4F200034FF49C721A8044F28A03C4F200034FF018021A7044F28C03C4F200034FF49C721A8093
:4030C00044F28E03C4F200034FF018021A704FF48643C4F200034FF002021A704FF040234FF008021A704FF48443C4F200034FF003021A7044F2A163C4F200034FF48472A9
:40310000C4F600121278D2B21A7044F22223C4F200034FF008021A8044F22023C4F2000341F251221A804FF00003FB704FF019037B6019E0FB784FEA4303DAB244F22523CA
:40314000C4F200031B78DBB203F00103DBB21343DBB203F00303FB704FF4F07000F070FA7B6803F1FF337B607B68002B02D0FB78032BDFD17B68002B03D14FF00300FFF77F
:4031800023FF44F20403C4F200034FF480721A8044F20403C4F200034FF007021A7044F20603C4F200034FF000021A7044F20803C4F200034FF048021A7044F20403C4F29D
:4031C00000034FF000021A7044F20103C4F200034FF002021A7044F2A233C4F2000344F2A232C4F200021278D2B242F00F02D2B21A7007F10807BD4680BD00BF80B483B0EF
:4032000000AF40F2CF13C4F600131B78FB7145F66E03C4F20003FA7902F00702D2B21A7045F66F03C4F20003FA794FEA1212D2B21A7045F67603C4F200034FF044021A705E
:4032400007F10C07BD4680BC704700BF80B586B000AF72B64FF00003FB7519E0FA7D13464FEA43039B184FEA430347F2F022C0F200029B183B613B691A683B699B889BB298
:4032800010461946FFF780FEFB7D03F10103FB75FB7D072BE2D94FF00003FB7523E0FA7D13464FEA83039B184FEA430347F22032C0F200029B18FB60FB681B68BB60FB6879
:4032C0005B687B60FB681A7A5B7A4FEA032313437B807B88B86879681A46FFF765FEFB7D03F10103FB75FB7D002BD8D040F20053C0F2000303F190431A4640F20053C0F234
:40330000000303F1904303F15C0310461946FFF761FE45F20303C4F2010345F20302C4F201021278D2B242F00202D2B21A7045F21303C4F2010345F21302C4F20102127892
:40334000D2B242F00202D2B21A7044F2A033C4F2000344F2A032C4F200021278D2B242F04002D2B21A7044F2C233C4F2000344F2C232C4F200021278D2B242F01002D2B2D7
:403380001A7040F20053C0F2000303F1904303F5016345F20210C4F2000019464FF00802FFF702FE40F20053C0F2000303F1904303F6180345F2C010C4F2000019464FF019
:4033C0000A02FFF7F1FD40F20053C0F2000303F1904303F6240345F23010C4F2000019464FF00A02FFF7E0FD44F22233C4F2000344F22232C4F200021278D2B242F0080242
:40340000D2B21A704FF49043C4F200034FF001021A70FFF721FE4FF49043C4F200034FF081021A704FF00403C4F208034FF001021A70FFF7E3FE44F2B030C4F2000044F207
:40344000A031C4F200014FF00E02FFF7ADFD07F11807BD4680BD00BF80B500AF48F26013C1F6FF731B78002B08D100F00BF848F26013C1F6FF734FF001021A7000F060F891
:4034800080BD00BF80B582B000AF46F27743C4F200031B78DBB223F03F03FB7146F27743C4F20003FA7942F00902D2B21A7046F29543C4F2000346F29542C4F200021278EB
:4034C000D2B242F00102D2B21A7046F29643C4F2000346F29642C4F200021278D2B242F00102D2B21A704FF6FF7000F03DF84FF6FF7000F057F847F2305000F063F84FF013
:40350000000000F06FF800F0A5F80346BB7146F29543C4F2000346F29542C4F200021278D2B242F01002D2B21A70BB79184600F095F800F029F807F10807BD4680BD00BF1C
:4035400080B400AF46F27743C4F2000346F27742C4F200021278D2B262F07F02D2B21A70BD4680BC704700BF80B483B000AF0346FB8046F60A03C4F20003FA881A8007F180
:403580000C07BD4680BC704780B500AF01E000F049F800F037F8034603F01003002BF6D180BD00BF80B483B000AF0346FB8046F68A03C4F20003FA881A8007F10C07BD462A
:4035C00080BC704780B483B000AF0346FB8046F64A03C4F20003FA881A8007F10C07BD4680BC704780B483B000AF0346FB7146F28543C4F20003FA791A7007F10C07BD4610
:4036000080BC704780B483B000AF46F26543C4F200031B78FB71FB79184607F10C07BD4680BC704780B400AF46F6AA03C4F200031B889BB21846BD4680BC7047000000004D
:403640000230800800F0058000BF013800467FF4FCAF7047EFF3108072B6704780F31088704700BFAFF3008080B483B000AF0346FB7101BE07F10C07BD4680BC704700BFCA
:4036800080B582B000AF78600BE048F22C13C1F6FF731B681846FFF7D3FF7B68A3F500437B607B68B3F5004FEFD848F22413C1F6FF731B687A6802FB03F31846FFF7C0FFA7
:4036C00007F10807BD4680BD80B584B000AF03463960FB714EF60853CEF200031B68FB60FB791F2B03D94FF00000FFF7BDFFFB7903F01F0303F110034FEA8303FA68D318B6
:403700001B68BB60FB7903F01F0303F110034FEA8303FA68D3183A681A60BB68184607F11007BD4680BD00BF80B582B000AF02460B46FA71BB71BB79072B03D94FF00000DD
:40374000FFF792FFFB791F2B03D94FF00000FFF78BFFFB7903F01F0303F1604303F56443BA794FEA4212D2B21A7007F10807BD4680BD00BF80B500AF48F26113C1F6FF731B
:403780001B78002B08D100F00BF848F26113C1F6FF734FF001021A7000F022F880BD00BF80B500AF4FF0000043F64911C0F20001FFF78AFF4FF000004FF00701FFF7B4FFBF
:4037C00046F28453C4F200034FF072021A7046F28443C4F200034FF020021A7080BD00BF80B582B000AFFFF735FF0346FB7146F29453C4F2000346F29452C4F200021278F8
:40380000D2B242F02002D2B21A7046F29443C4F2000346F29442C4F200021278D2B242F01002D2B21A704FF46143CEF200034FF001021A6000F0FEF8FB791846FFF70EFF93
:4038400007F10807BD4680BD80B400AF4FF46143CEF200034FF001021A60BD4680BC704780B400AF4EF28013CEF200034FF001021A60BD4680BC704780B582B000AF4FF042
:403880000003FB71FFF7ECFF48F26213C1F6FF731B78BB7148F26313C1F6FF731B787B7148F26413C1F6FF731B78DBB2002B03D1BA797B799A4226D0BA7949F23423C1F65B
:4038C000FF739B5CFB71BB7903F10103BB71BB794F2B02D94FF00003BB7148F26213C1F6FF73BA791A7048F26413C1F6FF731B78DBB2002B20D048F26413C1F6FF734FF0E1
:4039000000021A7018E046F26443C4F200031B783B713B7903F02003002B0DD046F24753C4F200031B78FB713B7903F01E03002B02D04FF00003FB71FFF786FFFB79184610
:4039400007F10807BD4680BD80B483B000AF4FF00003BB7146F26443C4F200031B78FB715EE048F26313C1F6FF731B78DBB21A4646F24753C4F200031B78D9B249F2342313
:40398000C1F6FF7399544FF00103BB71BB79002B40D048F26413C1F6FF731B78DBB2002B06D048F26513C1F6FF734FF001021A7048F26313C1F6FF731B78DBB203F1010380
:4039C000DAB248F26313C1F6FF731A7048F26313C1F6FF731B78DBB24F2B06D948F26313C1F6FF734FF000021A7048F26313C1F6FF731B78DAB248F26213C1F6FF731B787F
:403A0000DBB29A4206D148F26413C1F6FF734FF001021A7046F26443C4F200031B78FB71FB7903F02003002B9BD107F10C07BD4680BC704780B400AF44F2A233C4F2000340
:403A400044F2A232C4F200021278D2B242F00402D2B21A7044F2B233C4F2000344F2B232C4F200021278D2B242F00402D2B21A70BD4680BC704700BF80B500AF48F26613EA
:403A8000C1F6FF731B78002B08D100F00BF848F26613C1F6FF734FF001021A7000F036F880BD00BF80B500AF4FF0010043F6C941C0F20001FFF708FE4FF001004FF00701F4
:403AC000FFF732FE46F28653C4F200034FF072021A7046F28643C4F200034FF020021A7046F22343C4F200034FF007021A7046F23343C4F200034FF048021A7046F287533F
:403B0000C4F200034FF000021A7080BD80B582B000AFFFF79FFD0346FB7146F29653C4F2000346F29652C4F200021278D2B242F02002D2B21A7046F29643C4F2000346F243
:403B40009642C4F200021278D2B242F01002D2B21A704FF46143CEF200034FF002021A6046F29753C4F2000346F29752C4F200021278D2B242F01002D2B21A7000F01AF9D7
:403B8000FB791846FFF76AFD07F10807BD4680BD80B400AF4FF46143CEF200034FF002021A60BD4680BC704780B400AF4EF28013CEF200034FF002021A60BD4680BC704723
:403BC00080B582B000AF4FF00003FB71FFF7ECFF48F26713C1F6FF731B78BB7148F26813C1F6FF731B787B7148F26913C1F6FF731B78DBB2002B03D1BA797B799A4226D030
:403C0000BA7949F28423C1F6FF739B5CFB71BB7903F10103BB71BB79312B02D94FF00003BB7148F26713C1F6FF73BA791A7048F26913C1F6FF731B78DBB2002B20D048F2C4
:403C40006913C1F6FF734FF000021A7018E046F26643C4F200031B783B713B7903F02003002B0DD046F24553C4F200031B78FB713B7903F01E03002B02D04FF00003FB7136
:403C8000FFF786FFFB79184607F10807BD4680BD80B483B000AF0346FB7100BF46F26753C4F200031B78DBB203F00403002BF5D146F24743C4F20003FA791A7007F10C07AD
:403CC000BD4680BC704700BF80B483B000AF4FF00003BB7146F26643C4F200031B78FB715EE048F26813C1F6FF731B78DBB21A4646F24553C4F200031B78D9B249F28423CD
:403D0000C1F6FF7399544FF00103BB71BB79002B40D048F26913C1F6FF731B78DBB2002B06D048F26A13C1F6FF734FF001021A7048F26813C1F6FF731B78DBB203F10103ED
:403D4000DAB248F26813C1F6FF731A7048F26813C1F6FF731B78DBB2312B06D948F26813C1F6FF734FF000021A7048F26813C1F6FF731B78DAB248F26713C1F6FF731B7800
:403D8000DBB29A4206D148F26913C1F6FF734FF001021A7046F26643C4F200031B78FB71FB7903F02003002B9BD107F10C07BD4680BC704780B400AF44F2A233C4F20003B6
:403DC00044F2A232C4F200021278D2B242F00802D2B21A7044F2B233C4F2000344F2B232C4F200021278D2B242F00802D2B21A70BD4680BC704700BF094B10B5D8689A689B
:403E0000002308E0114652F8084B1CB901230B60486810BD01338342F4D3002010BD00BFB892FF1F084B30B50022DC689B6808E05D6819460833854202D100230B6030BDD1
:403E40000132A242F4D330BDB892FF1F01230373704700230373704710B1002282720260704718B1027B0AB1013A02737047034608B901387047012A03D0022A03D062B10C
:403E800005E0426801E002685268891805E04FF6FD7202814FF0FF3070475A688A4201D1002070474FF0000259601A8100207047FFF7DDBF08B901307047827A12B94FF0A8
:403EC000FF307047026840685368984234BF00200120704738B501F093FE20B3124C4200E260000101F080FE238AA060E068584301F07AFEA568E168228A002304E005EBC4
:403F0000C3046060013380188B42F8D3102001F06BFE054C6061282001F066FEA37CA06143F00203A37438BDB892FF1F38B510220D460021044601F089FDFFF75DFF08B92A
:403F4000013038BDA0604FF0FF33002065602360A07338BD38B5837A044643B1056801F05FFC2846FFF77DFF2046FFF775FF002038BD08B50368827A03B19B6822B11BB11A
:403F8000FFF7E8FF002008BD012008BD08B901307047FFF7EEBF000038B5104B9C69217B59B921606160A16004F11000142201F04DFD237B013323730DE0656A45B92820EF
:403FC00001F0FCFD606218B12946282201F03EFD646A002CE3D1204638BD00BFB892FF1F38B50E4B5C69A17AE56839B92046102201F02CFD0123A372E5600CE045B9102088
:4040000001F0DCFDE06018B12946102201F01EFDE468002CE7D1204638BD00BFB892FF1F2DE9F74F06460020884691469B469DF830A09DF83470FFF7AFFF054608B9044668
:4040400010E0FFF7CDFF044660B180F80B900560AE604046214652463B46CDF800B001F037F930B12046FFF7F7FE2846FFF7F9FE00242046BDE8FE8F2DE9FF410C461F46BB
:4040800004A9002341F8043D15469DF8286000F0EFF88046B8B1039B0BB11B789BB1404600F06FF900280EDD14F0150F01D0032809D1039939B1404622462B4600970196FD
:4040C000FFF7AEFF00E0002004B0BDE8F08100002DE9F3410646884600240E4D404655F83410E70001F0E8FC10B9002C04DA0DE001340F2CF1D109E07D19A87929790090D9
:40410000EA796B793046FFF7B7FF00E00020BDE8FC8100BF2C730000FFF7DABF10B5437B04460BB1012010BD40682168A268A37B01F053FE10B10120607310BD207310BD13
:4041400010B5437B044663B9037B53B140682168A268A37B01F041FE08B1012363730023237310BD036870B5994204460D46164607D0037B0BB1FFF7E3FF00232560A67304
:40418000E37370BDFFF7DCBF10B50446FFF7D8FFA068BDE81040FFF745BE01230373FFF7CFBF10B50446407B08B1012010BDE37B5BB960682168A268A37B01F082FD10B16E
:4041C0000120607310BD0122E27310BD30B592B188B1857A046875B16CB190F80BC01CF0080C04D14FF6FB720281604630BDBDE8304001F0B1B9002030BDFFF7E7BF08B5C4
:40420000436813B94FF0FF3008BD984708BD0000F8B50C4617460023144D01E0ED6D01338342FBDB2B6828791B68984706460CB92046F8BD01F04DFC0530B84214DC2246C3
:404240000020335C013223540130315C0029F8D113464FF03A0C03F801CB2C7903303034547083F801C09970F8BD00BFD492FF1F2DE9F0470F463A21064601F04CFC044687
:4042800010B93446174D27E00378C6EB000A5BB114F8013F43B162783A2A05D1A3F130085FFA88F8023401E04FF000080D4D2B6828791B689847814601F00BFC504508D19A
:4042C00048463146524601F00CFC10B92B79434502D0ED6D002DEAD107B13C602846BDE8F08700BFD492FF1FF8B5174C064694F85B10E56D69B960220127204601F0A6FB95
:4043000084F85B70E5653046FFF779FF00280EDA18E045B9602001F051FCE06518B12946602201F093FBE46D002CE0D10AE0074B2660DA6F0132DA670323207184F85B701B
:4043400084F85A302046F8BDD492FF1FB892FF1FFFF7CABF38B504460D4601F080FC08B9013838BD204601F08DFC204601F04CFE204600F0D7FC08B184F8595094F859005E
:4043800038BD90F8593023B990F85A1009B1FFF7E1BF1846704730B51346BAB1B0B10268857A0AB1946804B900247DB172B16CB1C27A12F0100204D14FF6FA73038110469A
:4043C00030BD1A46BDE8304001F04CBA002030BDFFF7E1BF0C2802D0102805D102E001EB510070474800704788007047036840689B685B6AB0FBF3F0704710B5046D836C54
:40440000E4B199421AD3E318994217D2013B99420CBF4FF0FF31013172B190F836300C2B02D0102B05D102E00905090D03E089B201E021F070411160012010BD002010BD9F
:4044400040F6F473984201D80C2070474FF6F473984294BF102020207047027F8368023902FB01307047431EDBB21F2B13D92F2811D007D826280ED002D8222809D10AE02E
:404480002A3804E03A2804D33F2804D95B38022801D90120704700207047034638B30B2A01DD0B2200E0013A00201CE0082809D191F808C0BCF1200F0DD04FF02E0C03F8C0
:4044C00001CB08E038B991F800C0BCF1050F02D1ACF1200C04E011F800C0BCF1200F01D003F801CB01309042E0DB00221A7070472DE9F04788B005AE04460D46304611468D
:4045000000229A469DF84490BDF84C80BDF8507000F01EFD08B1002413E020462946524600F00FFE044660B1129B31460093109A4B46CDF80480029700F0C6FF2846FFF78D
:4045400085FC204608B0BDE8F08710B59DF80C400394BDE8104000F0D9BD00002DE9F04F144E87B0109DDDF848809DF84440376800950194CDF8088005937F689346824641
:404580008946B84732680C4BDDF814C09A420DD060B9504649465A46634610951194CDF8488007B0BDE8F04FFFF7CFBF07B0BDE8F08F00BF3081FF1FD473000070B5C37A4B
:4045C00004460B7010300D4601F0D4FA064604F10E0001F0CFFA40EA0640686004F1120001F0C8FA0004A86004F1180001F0C2FA064604F1160001F0BDFA40EA0640E8602C
:4046000004F11C0001F09DFA286170BD2DE9F845038A04460E46924687692BB907F118002146626900F064FC38465146224600F0E7FC0546204600F065FCD5B12B78C3B180
:40464000E52BF1D095F80B80B8F10F0FECD018F00808E9D170692946B269FFF71EFF28463146FFF7ABFF238A404601332382BDE8F8854FF0FF30BDE8F8850222FFF772BDFA
:404680002DE9F04790F8366005460C46304611469146FFF79FFEB5F81E80AB6A20FA08F89845824602D30020BDE8F0876B8E05F118079844204641463A46FFF7DEFF2046FB
:4046C000FFF76FFD18B14FF0FF30BDE8F087AA8BA168013A0AEA020A1FFA8AFA92450AEB01031AF8015001D0013309E0204608F101013A46FFF7C1FF2046FFF752FDA36881
:4047000018780C2E45EA002009D0202E0FD15D7840EA05409D7840EA0560BDE8F08719F0010F02D00009BDE8F0870005000DBDE8F08700002DE9F34190F83630144603FB87
:4047400002F7828B8846D200511E0F40D71B0546B7FBF3F7002618E00E4B93F88030022B05D12846214601AAFFF747FE28B9284641462246FFF784FF0190019B0134A3428E
:4047800005D10136B6B2013F1C46002FE4DC3046BDE8FC81B892FF1F2DE9F34105460E46144698461F681CE0114B93F88030022B05D12846214601AAFFF71FFE28B92846D3
:4047C00031462246FFF75CFF0190737B0BB100240BE0AA6B019B0132934204D81BB1013F1C46002FE0D1C8F800702046BDE8FC81B892FF1F73B504680E4623681BB9FFF7FF
:40480000F5FD013039E0FFF7F1FD236998423CBF4FF0FF3323612369B3F1FF3F04D12268013323616261E3832169E28B451A954234BF2B4613463BB16069C918C018D21A10
:4048400060612161E283ED1A0DB9284615E002AB43F8045D31466269A068FFF79DFF6061019B21690246C91A4D19256123B9A0683146FFF75FFFE08301987CBD13B502ACE3
:4048800044F8043D2346FFF787FF019B002B18BF00201CBD2DE9F0410746884615461E460024384641462A460123FFF7E7FF30B1BA6B0134944201D80546F2E7002406B15C
:4048C00034602846BDE8F0812DE9F74F04460D461E461746002A00F0B98090F836001146FFF778FDB4F81EA0A36A20FA0AFA9A45814680F0AB80638E04F118089A442846EB
:4049000051464246FFF7B9FE2846FFF74AFC6B7B002B40F09B80A38BAA68013B09EA03091FFA89F303EB020926B9216C8F4203D2276401E0791C216494F8361010290AD01F
:40494000202911D1484601F0FCF831460746484601F002F94EE0484601F00CF9B1B20746484601F003F945E0284600920193FFF76DFA009A019B17F0010F13F802B01BD073
:404980000BF00F0141EA06119954A28B013A934202D009F1010309E028460AF101014246FFF76BFE2846FFF7FCFBAB681F7832093F0147EA1B171CE09E54A28B013A934267
:4049C00002D009F1010309E028460AF101014246FFF753FE2846FFF7E4FBAB681A78310A02F00F0701F00F0122F00F024BEA07270A431A702846FFF729FA94F83630202B77
:404A000018D1B4F84620AAB9B4F844102846FFF7A9FB2846FFF7C5FBA8684FF0FF3100F5F47001F099F82846FFF710FA4FF00103A4F84630E36BB3F1FF3F09D00FB10133D2
:404A4000E3632EB1E36B013BE36301E0012000E00020BDE8FE8F6FF07043FFF735BF70B5036D04460E4693B1002506E0AA1820463146531CFFF728FF0135236DA26C013B54
:404A80009D42F3D320463146AA18FFF7E4FF0023A3642365E364636570BD70B506460D461C460AB1FFF710FF304629462246BDE87040FFF7D0BF00002DE9F84504460E46ED
:404AC00015461F46002B36D01C4B93F88030022B31D190F8368011464046FFF77BFCB4F81CA00AF1FF3A2AEA000A4FEACA0ABAFBF8FAAA44A8460EE0204631464246FFF7D9
:404B0000BFFD50B9A36C0BB9C4F84880E36C08F101080133E364D045EED9E36C5BB167653B685A6922B1204631462B46FFF7CCFE236D01332365BDE8F88500BFB892FF1FAE
:404B40002DE9F8459846274B054693F880300F46022B1646846B19D1436D984503D0C36C0BB1FFF77CFFB8F1000F0FD06B6D43450CD12B6DEA6C9A4204D9AC6C1C1901339D
:404B80002B652CE028463946FFF769FF012E04F1010A01D9564505D92E6C012E01D9564500D902263446284639462246FFF768FD50B101345445F6D902240DE02846394685
:404BC0002246FFF75DFD30B92846394622464346FFF772FF03E00134B442EFD300242046BDE8F885B892FF1FF8B507460E461546FFF7A6FF044628B1384631462A462346B6
:404C0000FFF74BFF2046F8BDB2F1FF3F73B504460D4614D0561A013611D0FFF7B3FA084B00211A8AA06800F011FF022300936068A3682946324601F0ABF80023E3737CBD8C
:404C4000B892FF1F2DE9F84F984690F8363004460C2B0D4616465AD04FF0FF3AD1463CE094F836003146FFF7B5FBB4F81CB0678E0BF1FF3B10EA0B0BE38B1DD1D840013F58
:404C80003F18022228463946FFF76CFAA38BAA689B0852F80B1079B9013B0BF1040BF8D13BE0494628465246FFF7AEFFB946BB462846FFF7CEF8DA46294632460123204698
:404CC000FFF7DCFD29460746324620460023FFF7FBFD2FB108F1FF383E46B8F1000FBFD1284649465246FFF78FFF13E02946324601232046FFF7C2FD294607463246204692
:404D00000023FFF7E1FD2FB108F1FF383E46B8F1000FEBD14046BDE8F88F0AF1010B5F45BFD1C5E72DE9F8450546FFF765F8044608B90546D0E0284601F056F8684E338AC4
:404D4000834208D338B10021284622460B4600F0B8FF002804DA2046FFF764F80025BBE004F5FF7000F006FF4AF65523984240F0AD8004F10B0000F0FDFE10F47E4F0746E8
:404D800000F0A480338A8342C0F0A080237C022B40F09C8094F80D80B8F1000F00F096800021402205F1180000F050FE04F1130000F0E0FE064620B904F1200000F0C1FE10
:404DC000064604F1160000F0D5FE824680B904F1280000F0CFFE10F08F0F77D104F1240000F0AFFE824604F12C0000F0AAFEE862022385F83530C5F828A0AE6185F834808B
:404E000004F10E0000F0B6FE688604F1110000F0B1FE95F835206B8E288602FB0A3A7A0992B2B0FBF2F25244AF832A62092301219940B94201D1EB8302E00133102BF6D14A
:404E400008FB07F7B61AB6FBF8F6AE636F623046FFF7F6FA202818BFC5F82CA04FF0FF33202885F83600EB6332D104F1300000F081FE00230146A5F844002246284600F07A
:404E800020FF002822DB204600F05BFE804604F5F27000F056FE074604F5FE7000F051FE104B984514D1104B9F4211D10F4B98420ED104F5F67000F044FE286404F5F470DF
:404EC00000F03FFEB04203D8E86301E0002500E001252046FEF7A6FF2846BDE8F88500BFB892FF1F5252614172724161000055AA00238B60837F202B01D102B942694A60A2
:404F00000A60704783680133836070472DE9F0410C46202105461F469DF818604FF0000800F094FD10E014F8080036B9E52804D1B8F1000F01D1E03802E000F0E5FDC0B29B
:404F400005F8080008F10108B845ECDBBDE8F0812DE9F74506460D4608462849002A14BF92464FF0FF3A00F0A7FD804650B930462946022200F05FFFB01C2021092200F071
:404F800065FD37E04FF0FF34002715F80780B8F1000F01D0574505D1B4F1FF3F08BF3C4664B925E04046FFF75EFA08B3B8F12E0F08BF3C4601370D2FE7D119E0082C17DCF8
:404FC0003F1B042F14DC30462946082223464FF00008CDF80080FFF799FF0123611C009306F10800691803227B1EFFF78FFF01E04FF001084046BDE8FE8500BFE4730000BF
:405000002DE9F74FD2F808B0436A4FEA4B18B8FBF3F8D368054698450E461446D2F8009001D20023D360B5F81EA0E368AAF1050A0BB9D4F804902BFA0AF7B9F1000F17D0CD
:4050400095F83420B8EB0303019206D04A4628463146FFF713FC814640B3494605F11800FFF7FBF9019B591E01EA0707C11906E02B8E43FA0AF39F4218D2E96A791830469E
:40508000C4F80090C4F80C800122FFF76BF83046FFF787F850B9013000FA0AFAB3680AF1FF3A0AEA0B0B03EB4B1000E00020BDE8FE8F2DE9FF4107460E4601A811461A4692
:4050C0000A9D9DF82C40FFF743FFC8B9384631462A46FFF795FF8046A0B1037883B101A90B2200F0A3FC38B998F80B3004EA0302A24201D1082B05D12846FFF703FFE5E794
:405100004FF00008404604B0BDE8F0812DE9F04587B002AF04460E46154698469DF83CA039460E9A1830FFF7E3FE204631462A4643460097CDF804A0FFF7BBFF07B0BDE835
:40514000F0852DE9F04500F1180785B005460C46384669469246FFF7CBFE284621466A46FFF74EFF06466846E846FFF7CBFE002E37D1BAF1000F02D12B8E002B35D1214606
:40518000009A00232846FFF785FB2146024600232846FFF729FD80462046FEF7FEFFB8F1000F22D0AA8B0021A06800F04FFC38464146FFF752F995F8347000257E1E36180B
:4051C00008E0314620460122FEF7CCFF2046FEF7A5FF013E01357B1BB3F1FF3FF1D1A66803E033780BB1E52BB7D1304605B0BDE8F08538B504461A3000F0BCFC054604F1BB
:40520000140000F0B7FC45EA004038BD2DE9F0451D4685B007460E462A6010465C21904600F079FC4FF0000A0446A04508D108F10108C5F8008040465C2100F06CFC044602
:4052400094B1C8EB0403002B0EDD10220192103A0292384631464246CDF800A0FFF77EF970B1FFF7C6FF824628685C2100F053FCA04604460028D8D10C9B0130C3F800A003
:4052800005B0BDE8F085F8B505460C461E461746DAB16FF01A0313700846FEF7D7FD16B94FF47A7608E007F11C0000F04AFC6B6A5E1E3618B6FBF3F63846FFF79AFF214692
:4052C000024633462846FFF7BDFC607BF8BD00002DE9F04FD1F8008093B0D8F808700BAD044608930E464FF0FF333946284609920F939DF870A0FEF719FE10AB009338460E
:405300002946224611ABFFF781FFD0B1F27A109B07920FAA00930292002338462946119A0193FFF71BF9044680B1C37A13F0100F07D10D9BDDF82CB0C3EB00094FEA69197D
:4053400006E02846FEF720FF0125A3E083468146099B002B3CD0002C33D0524B5D6912E02B687BB1AA7A6AB19A8B4A450AD19A695A4507D19B68BB4204D14FF6F7723281F0
:4053800000257EE0ED68002DEAD10DF12C0C6146384622460123CDF818C0FFF774FFDDF818C018B14FF0FF3333816AE03E4B1B68DC6824B138466146109A0F9BA0472C4664
:4053C00006E0BAF1000F03D1089A002A44D065E0089BEBB1CCB1E37A13F0010F0BD0079A12F0150F07D04FF6FA733381BAF1000F01D1012500E000252046FFF7FAFE0746B1
:4054000004F11C0000F09DFB29E0BAF1000F45D0BAF1010F01D000251BE0ECB900F028FE214B20221B68019282B2000C03920490009402949D6838460BA9119A109BA847C1
:4054400050B10D9ADDF82CB0C2EB00094FEA6919254628462F4602E00125002007464FF0FF33C8F81030C8F818B0A8F81C90079AC8F8040012F0010308BF1846C8F800709A
:405480007060B6F908300BA835EA230528BF0125FEF77AFE284613B0BDE8F08F01255046DCE700BFB892FF1F3081FF1F70B505460C461A3089B200F059FB05F11400210C35
:4054C000BDE8704000F052BB2DE9F0470446BDF824700D469146002120229A46BDF82860DDF8208000F0B2FA0B222046294600F0A2FC04F10E00394684F80BA000F036FB65
:4055000004F11000314600F031FB04F11600394600F02CFB04F11800314600F027FB20464946FFF7C3FF04F11C004146BDE8F04700F012BB07B5426803460AB910460AE00C
:4055400081680020009048681968DB6800F0DCFB003818BF01200EBD2DE9F04F0368B0F9085095B0044689469F68002D40F0B78041685868814203D34FF0FF312181AFE000
:40558000411A8A4228BF0A46029222B94FF0FF322281029DA4E01B68002B00F0A080394610AE0CA8FEF7C2FC39463046FEF7BEFCD4F800B0029ADBF80870AA4607F118037C
:4055C0000693796A4FF0FF330591099508930A96049220460CA9FFF70DF900286ED1DBF81030059901334B43626804999B1A994228BF19460391BB8BDBF81410013B13402B
:4056000006980193FEF729FFF98B656897F8342035FA01F1013A019B02EA0101CDF81CB000EB01081E46BB46BBF81C30039A9D1B954228BF15469D4211D010AF3846414626
:405640000022FEF78FFD3846FEF7ABFD002835D11299484671182A4600F0EDFB12E0099B089A9A1890450BD008A8FFF763FF00283AD10123CDF820800993CDF82C9001E0D8
:4056800001330993049B03995B1B04936368A9445B19491BAA446360039103D008F101080026C1E7049A5F46DDF81CB0002A90D108A85546FFF73EFFB0B900E05546029BEC
:4056C0009D4205D0B4F9083013B94FF6F97121810CA8FEF759FD10A8FEF756FD00E00025284615B0BDE8F08F0025EBE707B5426803460AB910460AE08168002000904868A7
:405700001968DB6800F022FB003818BF01200EBD2DE9F047046805460F46A668FFF76AF881468246002841D0D4F80080B8F1000F1BD14246304639462B46FFF701FA0246FF
:40574000D8B11C4B6061C4F8108093F880302060022B07D030463946FFF77DF910B10120BDE8F087B9F1010A20D03046394662692B46FFF7E5F9804628B94FF6FE732B815B
:405780000130BDE8F0870B4B93F88030022B05D03046394662694346FFF77FF92369C4F8148001332361BAF1010ADDE70020BDE8F08700BFB892FF1F2DE9F0418368044665
:4057C0000D4608460122A1699E8BFEF7CBFC2846B4F81C80AF68FEF7E4FCF8B9013E06EA4816B6B2BE1906F11C00616800F0B4F921683046FFF75AFE00F03AFC0446A1B24E
:4058000006F1160000F0B2F906F11800210C00F0ADF92846BDE8F041FEF7BFBCBDE8F0817FB50668B0F90830B568C3B9C37A13F0110F14D029466846FEF778FB304669461A
:40584000FFF7BAFF064B6C4693F88030022B03D128466946FFF703F96846FEF795FC7FBDB892FF1F03682DE9F04F9F68038995B001339BB2012B04460E46059201D90025DA
:40588000CEE0394610AD0CA8FEF750FB39462846FEF74CFB039626680023D6F808909A4609F118010791D9F82420059906924FF0FF32099308920A950291049320460CA9D1
:4058C000FFF726FF38B108A8FFF710FF5546002818BF00258FE03269069901324A43B9F81CB063680BF1FF3BD21A0BEA030B029B0798934228BF134601937169FEF7ADFDFC
:4059000099F83430B9F81C206768013BB7FBF2F703EA0707C719B9F81C300199CBEB03058D4228BF0D469D4228D0BBF1000F03D1626873689A420FD00DF140084046394695
:405940000022FEF70FFC4046FEF72BFC20B14FF6F9725546228154E01298039958442A460DF1400800F067FA404639460022FEF7F9FB4046FEF7D2FB90B141E0099B089A87
:405980009A1897420AD008A8FFF7B0FE002837D101230993039B08970B9301E001330993029B03995B1B019A029363684919521BAA44ED186560736803919D42019207D9C0
:4059C0001BB1194B93F880300BB9012104917560019A1AB101374FF0000B9CE7029B002B7FF46CAF08A8FFF781FE04995546002818BF002529B1304610A9FFF7DDFE00E0F0
:405A00005546059A954205D0B4F9083013B94FF6F87323810CA8FEF7B7FB10A8FEF7B4FB284615B0BDE8F08FB892FF1F10B5002308E0C45C11F803C0013A0133644501D060
:405A4000012010BD002AF4D1104610BD70B5034602E003F8011C013A1C4622B103F003050133002DF5D193081ED04FF001354D4308E044F8105C44F80C5C44F8085C44F88E
:405A8000045C043B032BA44604F11004F1DC1C46002603E04CF80650013B0436002BF9D102F003020CEB8404002302E0E154013A0133002AFAD170BD002310F803C0CA5C94
:405AC000624501D0012070470133002AF5D110467047002300E00133C25C002AFBD11846704710B500230BE0C45C11F803C0644501D0012010BDC4186478013314B1013AB2
:405B0000002AF1DC002010BDA0F16103192B98BF00F0DF007047C9B203E00BB918467047013003788B42F8D1704742780178431C42EA01205A789B7842EA002043EA0020DE
:405B400070478378C27803EB0222437803EB0222037803EB0220704703460A0A03F8011B42700A0C090E5A70997070470170090A417070474278037843EA02207047000014
:405B8000094A0A4BC11C10B5146821F0030118680919814201D9002010BD11609A685868013220189A6010BD3C93FF1F6C81FF1F08B5FFF7E5FF00B9FEE708BDFFF7E0BFF2
:405BC00030B1044A9368013B93600BB9024A1360704700BF6C81FF1F3C93FF1F014B5860196070476C81FF1F38B50546FFF7E0FF002104462A46FFF729FF204638BD0000BB
:405C000010B5084CA37C0BB1002010BD4FF40073238200F01BFAA37C012043F00103A37410BD00BFB892FF1F08B583680BB10020984708BD08B583680BB10120984708BD50
:405C400010B504680079A468A04710BD37B59DF81850046800790095E468A0473EBD08B5036800799B69984708BD036810B55B69044623B10079984708B1002000E001209C
:405C8000607110BD10B5437904460BB9FFF7EDFF607910BDF7B504461F460E461546FFF7F1FF2046FFF7C6FF2A463146012320460097FFF7C5FF05462046FFF7B5FF284693
:405CC000FEBD10B504690919BDE81040FFF7E2BF2DE9F341044615461F460E469DF82080FFF7D0FF2046FFF7A5FF2B4631463A462046CDF80080FFF7A3FF05462046FFF715
:405D000093FF2846BDE8FC8130B504699DF80C5009190395BDE83040FFF7DABFF7B5044615461F460E46FFF7ADFF2046FFF782FF0023009331462B463A462046FFF786FF18
:405D400005462046FFF770FF2846FEBD30B504699DF80C5009190395BDE83040FFF7DEBFF7B5044615461F460E46FFF78BFF2046FFF760FF0123009331462B463A46204675
:405D8000FFF764FF05462046FFF74EFF2846FEBD30B504699DF80C5009190395BDE83040FFF7DEBF73B504460E461546FFF76AFF2046FFF73FFF00232A46009331460133DD
:405DC0002046FFF743FF05462046FFF72DFF002D14BF4FF0FF3000207CBD10B504690919BDE81040FFF7DEBF30B5054685B0FFF749FF2B6828791C694FF47B71002201AB36
:405E0000A04708B1002001E0BDF80C0005B030BD70B506460D46FFF735FF336830791C694FF47B7100222B46A047002814BF4FF0FF30002070BD11F0030F70B584460B46F5
:405E400032D110F0030F2FD195100446AC4611E053F8106CACF1040C44F8106C53F80C6C44F80C6C53F8086C44F8086C53F8046C44F8046C10341033BCF1030FE8D8AB0809
:405E80001B0100EB030CCB1815F003050AD0284600215C584CF8014004310138F9D1AD00AC445B1902F0030213F0010F19462FD11CF0010F60462BD15410254610E031F8E2
:405EC000086C043D20F8086C31F8066C20F8066C31F8046C20F8046C31F8026C20F8026C08300831032DEAD8A108C9005B1814F003048C440AD0204600215D5A2CF801504E
:405F000002310138F9D16400A4441B1902F00102614610E013F8040C043A01F8040C13F8030C01F8030C13F8020C01F8020C13F8010C01F8010C18460433032A8C4601F1D7
:405F40000401E7DC32B10023C15C0CF8031001339342F9D170BD0378E92B01D101207047EB2B01D0002070478078902814BF00200120704708B500F5FF70FFF7FBFD4AF65E
:405F80005523984214BF0020012008BD01EB001000F5E370FFF7D5BDF0B50D4685B01446064658B352B300210B46FFF773FE002824DB2046FFF7DEFF00B32046FFF7CBFFF5
:405FC00010B10024274616E02146FFF7DFFF074604F5E570FFF7B5FD01A904463046FFF717FF5CB157B1E219FF23120AB2FBF3F2029B9A4202D81DB12C6001E04FF0FF3782
:40600000384605B0F0BD000073B50446FFF7ECFE0646FDF7F1FE0C4B05461B8AB3420DD366B1204601A92A46FFF7B6FFB0F1FF3F04D02061019B6361002400E0FF24284678
:40604000FDF7F0FE60B27CBDB892FF1F80B500AF48F27810C1F6FF704FF48051FFF7BEFD47F23040C0F20000FEF772F980BD00BF80B485B000AF4FF00003FB814FF000032B
:40608000BB814FF000037B814FF001033B814FF00103FB804FF00003BB80FB894FEA53039BB21A46BB894FEA4313D2187B894FEAC323D3183B603A89FB884FEA4313D21847
:4060C000BB884FEA4323D3184FEA03433A6813433B603B68184607F11407BD4680BC70474FF6FF7070470000014B1868704700BF7891FF1F004870475074000000F0BCBDB7
:4061000037B501220DF10701054600F0D1FD9DF80740FF2C14BF0A240724284601220DF1070100F0C5FD9DF80700FF2803D1013CE4B2002CF1D13EBD37B5046985782846AE
:406140000DF10701012200F0B3FD9DF807300BB1002003E0013CF2D14FF0FF303EBD37B54FF0FF3305460C468DF8073006E028460DF10701012200F0BBFD013C002CF6DC4C
:406180003EBD000038B5094C2368032B02DD4FF0FF3509E0DDB2013323601420FFF724FD04EB850460608570284638BD7891FF1F08B5034B4FF400711B68984708BD00BFC1
:4061C0003481FF1F4FEAD20CACEBD103CCF10F0C10B501336044002410F801CB013B4CEA0424F9D101F00703511A02228A40DC40013A04EA020010BD7FB5130E85788DF83A
:406200000530130C01F03F018DF80630130A41F040018DF8073000238DF808208DF804101A4601A911F802C000215B00DBB283EA0C0E1EF0800F18BF83F0090301310829AF
:4062400004D04FEA4C0C5FFA8CFCEEE70132052AE7D15B0043F001038DF809308678C4680122304603A900F023FD9DF80C30FF2B04D00CB9FF2009E0013CF1E7284601A951
:40628000062200F035FD2846FFF73AFF04B070BDF7B5847806460F4620460121FFF75FFF204600F021FC304609210022FFF7A4FF8DF8070028BBF6680546012220460DF184
:4062C000060100F0F5FC9DF80630FE2B06D0FC2B04D00135ADB2B542EFD112E00DF1070520463946102200F0E3FC29462046012200F0DEFC29462046012200F0D9FC00251F
:4063000000E0FF25204600F005FC20460121FFF726FF2846FEBD00002DE9F04F9B46494B89B003EB800305925C684A02029103924FF00309029AA578E678039B2846022E55
:4063400008BF13461E4600F0E5FB01212846FFF706FFBBF1010F0CBF4FF0110A4FF0120A284600F0C1FB204651463246FFF744FF002851D1059F5E46A378E268B4460492B3
:406380004FF000081E460FE0012230460DF11F01CDF804C000F08CFC9DF81F20DDF804C0FE2A05D008F10108049B9845ECD333E0284639464FF40072664600F079FC0222FA
:4063C000284607A900F074FC9DF81C30384601939DF81D80FFF7ECFE4FF6FF729042019B0CD048EA0328404508D0BAF1120F13D120460C210022FFF7FFFE0DE0013E02D00A
:4064000007F50077B8E7BAF1120F07D120460C213246FFF7F1FE01E04FF0FF36284600F079FB28460121FFF79AFE3EB1B9F1000F02D009F1FF397DE74FF0FF36304609B0BE
:40644000BDE8F08F7891FF1F2DE9F04F99464C4B87B0029203EB80039DF840205D68009103926B78002B40F085804B0201930327009BAC78EE78019A2046022E08BF1A461F
:40648000164600F047FB01212046FFF768FEB9F1010F0CBF4FF0180A4FF0190A204600F023FB284651463246FFF7A6FE8DF81700002850D120460121FFF751FE029ECB4634
:4064C000B8463046FFF774FE0DF11707BAF1180F0CBFFE23FC2301228DF817308DF81500030A394620468DF8143000F001FC204631464FF4007200F0FBFB0222204605A9E6
:4065000000F0F6FB01222046394600F0D1FB9DF8173003F01F03052B1CD12846FFF70CFEC0B9039A0AB906F50076BBF1010BC8D1BAF1190F474611D106A96FF002032046E4
:4065400001F8013D012200F0D3FB2846FFF7F4FD20B100E047464FF0FF3600E00026204600F0D8FA20460121FFF7F9FD26B10FB1013F7DE74FF0FF36304607B0BDE8F08F5A
:406580007891FF1F2DE9F04F877887B0044638460D4600F0A9FA20463A210022FFF72CFE064638B1384600F0B5FA38460121FFF7D6FD58E00DF1140804224146384600F050
:4065C00077FB4046FFF7B1FA8046384600F0A2FA01213846FFF7C3FDB8F1000F28F07F02B8BF4FEA987BD2B240F272634FEA1828B8BF0BF0010B1FFA88F8002A14BF1A4650
:406600000022012111EA080F05D10136F6B24900102E89B2F6D140F27260824233460DD06422724302F5FA6208E011EA080F07D049000133013689B2DBB2F6B20F2EF4D91B
:4066400064214B434FF6FE7103F5FA6302EA01014FF6FC72384603EA020200F0D3FA10F0FF0F40F099804FF0FF3092E028467E217F22FFF7A7FD8246EB78DFF82C8103F010
:40668000030203F0780308EBD30358F822101B7C3846594389B200F06BFA0646002877D06B7803F00702DB1003F00F0308EB82024344126A93F810800292B8F1000F67D039
:4066C000A978284603911C221A21FFF77BFD0190BAF1000F1FD1502153222846FFF772FD4FF0010909FA00F92F2131222846FFF769FD1FFA89F982463E21284649224FEA16
:406700005929FFF75FFD0AF1020A09FA0AF9013000FB09F910E0BAF1010F01D0012038E0284630214522FFF74DFD4FEA8029BBF1000F01D00223E37008FB06F2029B039915
:40674000B2FBF3F2642303FB01225A437343D208DB089A4294BFE260E360FA235E43019BF6089A400C21B24294BF2261266128460D22FFF727FD0546384600F0E1F94FF4DE
:40678000007128436070A180C4F80890002000E0FF2007B0BDE8F08FE378A778012B3FF465AF4FF0000A67E7E8730000F0B5857887B004464FF4C871284600F0D9F9B0F56B
:4067C000C87F00F2CC804CF25033E3600026284600F0A0F90A212846FFF7C1FC624B93E8030001902846ADF8081000F07DF9062201A9284600F07CFA2846FFF781FC074686
:40680000284600F087F901212846FFF7A8FC17F0010F03D10136052ED9D1A0E0284600F063F9082120464FF4D572FFF7E5FC10F0040F52D0284600F06DF9A5784FF4FA666E
:40684000284600F051F9002237212046FFF7D4FC28460121FFF783FC292100222046FFF7CBFC0746284600F055F928460121FFF776FC17B90123E3701EE017F0040F01D114
:40688000013EDDD14FF4FA66284600F02DF9012100222046FFF7B0FC0746284600F03AF928460121FFF75BFC0FB9E77004E0012F55D1013EE8D152E001AD20462946FFF7C1
:4068C000E7FC00284BD120462946FFF75BFEC0B2002844D10123237043E00422A07805A900F0E6F9284600F015F99DF81730AA2B35D19DF8163003F00F03012B2FD1A578BD
:406900004FF4FA66284600F0EFF8002237212046FFF772FC28460121FFF721FC29214FF080422046FFF768FC0746284600F0F2F828460121FFF713FC0FB1013EE2D101AEF2
:4069400020463146FFF7A4FC48B90125E57020463146FFF717FEC0B208B9257001E04FF0FF3007B0F0BD00BF2874000010B5084B03EB80035C6823783BB9FFF7BFFB20B10D
:406980002046BDE81040FFF711BF4FF0FF3010BD7891FF1F38B51D46154BA1F57B7103EB80035C68072918D8DFE801F00A17171704041719204600211422FFF747F80CE0B0
:4069C000237833B92046FFF7F1FE10B14FF0FF3038BDA3882B81A3686B60002038BD2046FFF7EEF8024B00201A68013A1A6038BD7891FF1F80B582B000AF0346FB71FB799E
:406A0000002B1AD149F28C13C1F6FF731B78002B2ED149F28C13C1F6FF734FF001021A7000F0ACFA4FF03B004FF0010100F0C8FA00F082FA00F0D6F91AE049F28C13C1F6F8
:406A4000FF731B78002B15D149F28C13C1F6FF734FF001021A7000F091FA4FF03B004FF0010100F0ADFA00F067FA00F0BBF901E000BF00E000BF07F10807BD4680BD00BF2A
:406A800080B584B000AF02460B46FA71BB71FB79002B11D1BB79184600F0E6F900BF00F0C3F9034603F00103DBB2002BF7D000F0F7F90346FB7311E0BB79184600F0D4F9AB
:406AC00000BF00F0B1F9034603F00103DBB2002BF7D000F0E5F90346FB7300BFFB7B184607F11007BD4680BD80B582B000AF0346FB71FB79002B04D14FF0000000F070FB3E
:406B000004E04FF0000000F06BFB00BF07F10807BD4680BD80B582B000AF0346FB71FB79002B04D14FF0010000F05AFB04E04FF0010000F055FB00BF07F10807BD4680BDA8
:406B400080B485B000AF0346FB71FB79002B03D14FF00003FB6003E04FF00003FB6000BFFB68184607F11407BD4680BC704700BF80B584B000AF02460B46FA71BB80BA88D7
:406B800040F28F139A4203D84FF4C873BB8006E0BB88B3F57A6F02D94FF47A63BB80BB884FEA4303FB81FB8945F6C052B2FBF3F39BB2BB60FB79002B0ED100F0DFF9BB682E
:406BC0009BB203F1FF339BB218464FF0010100F0F7F900F0B1F90EE000F0D0F9BB689BB203F1FF339BB218464FF0010100F0E8F900F0A2F900BFBB88184607F11007BD46C5
:406C000080BD00BF80B485B000AF13460246FA710A46BA807B80FB7903F10003032B11D8BA8840F6E4439A4208D87A8840F6E3439A4203D94FF00103FB6015E04FF00003E7
:406C4000FB6011E0BA8840F6E4439A4208D87A8840F6E3439A4203D94FF00103FB6002E04FF00003FB6000BFFB68184607F11407BD4680BC704700BF80B584B000AF034691
:406C8000FB71FB791846FFF7B5FEFB7903F10003032B03D84FF00203FB6003E04FF00203FB6000BFFB68184607F11007BD4680BD80B584B000AF0346B9607A60FB73FB7B51
:406CC00018464FF0FF01FFF7DBFE03461A46BB681A70BB6803F10103BB607B6803F1FF337B607B68002BEAD107F11007BD4680BD80B584B000AF0346B9607A60FB73BB68BB
:406D00001B78BA6802F10102BA60FA7B10461946FFF7B6FE7B6803F1FF337B607B68002BEDD107F11007BD4680BD00BF80B500AF4FF4C943C4F200034FF00F021A7000F046
:406D4000BFF800F071F800F07FF846F28243C4F200034FF000021A7046F28343C4F200034FF000021A7080BD80B582B000AFFCF771FC0346FB7146F29043C4F2000346F235
:406D80009042C4F200021278D2B242F02002D2B21A7046F29243C4F2000346F29242C4F200021278D2B242F01002D2B21A7046F29343C4F2000346F29342C4F200021278D9
:406DC000D2B242F01002D2B21A70FB791846FCF745FC00F01DF800F021F807F10807BD4680BD00BF80B500AF49F28D13C1F6FF731B78002B08D1FFF799FF49F28D13C1F604
:406E0000FF734FF001021A70FFF7AEFF80BD00BF80B400AFBD4680BC704700BF80B400AFBD4680BC704700BF80B483B000AF46F26243C4F200031B78FB71FB79184607F1D0
:406E40000C07BD4680BC704780B483B000AF46F26343C4F200031B78FB71FB79184607F10C07BD4680BC704780B483B000AF0346FB7100BF46F26243C4F200031B78DBB24A
:406E800003F00403002BF5D046F24243C4F20003FA791A7007F10C07BD4680BC704700BF80B483B000AF46F25243C4F200031B78FB71FB79184607F10C07BD4680BC704747
:406EC00080B582B000AF04E046F25243C4F200031B7846F26343C4F200031B78DBB203F02003002BF0D1FCF7B5FB0346FB7146F29243C4F2000346F29242C4F2000212785A
:406F0000D2B242F00102D2B21A7046F29243C4F2000346F29242C4F200021278D2B222F00102D2B21A70FB791846FCF797FB07F10807BD4680BD00BF80B400AF44F2A23384
:406F4000C4F2000344F2A232C4F200021278D2B242F00102D2B21A7044F2B233C4F2000344F2B232C4F200021278D2B242F00102D2B21A70BD4680BC704700BF80B400AFB6
:406F800044F2A233C4F2000344F2A232C4F200021278D2B222F00102D2B21A7044F2B233C4F2000344F2B232C4F200021278D2B222F00102D2B21A70BD4680BC704700BF8E
:406FC00080B584B000AF02460B46FA807B7100F0F7F80346FB7300F0E7F80346BB81FA88BB899A4200F0DC8044F2A233C4F200031B78DBB203F00103FB72FB7B002B32D1B6
:40700000BB89002B02D0FB88002B2CD1BB89002B14D14FF48143C4F20003FA881A8044F28203C4F2000344F28202C4F200021278D2B222F04002D2B21A70B1E044F2820392
:40704000C4F2000344F28202C4F200021278D2B242F04002D2B21A704FF48143C4F20003FA881A809CE0FB7A002B5CD044F20103C4F200034FF000021A7044F21003C4F274
:4070800000034FF001021A7044F21403C4F200034FF000021A7044F20803C4F2000344F20802C4F200021278D2B202F07F02D2B21A7044F28203C4F200031B78DBB203F028
:4070C0000803002B02D0FB88002B2CD144F20203C4F20003BA891A8044F20103C4F200034FF007021A7000BF44F20103C4F200031B78DBB203F00103002BF5D144F2A23382
:40710000C4F2000344F2A232C4F200021278D2B222F00102D2B21A7044F20103C4F200034FF000021A7044F2A233C4F200031B78DBB203F00103002B1ED044F20203C4F200
:407140000003FA881A8044F20103C4F200037A79002A02D04FF0030201E04FF001021A7000BF44F20103C4F200031B78DBB203F00103002BF5D113E04FF48143C4F20003B0
:40718000FA881A8044F2A233C4F2000344F2A232C4F200021278D1B2FA7A0A43D2B21A7007F11007BD4680BD80B400AF4FF48143C4F200031B889BB21846BD4680BC70471B
:4071C00080B400AF44F28203C4F200031B78DBB203F00703DBB21846BD4680BC704700BF80B485B000AF0346FB7145F23013C4F200031B78DBB223F01003FB7345F230134D
:40720000C4F20003FA794FEA0212D2B202F01002D1B2FA7B0A43D2B21A7007F11407BD4680BC704738B50E4D0E4B0024E81A8510AC4205D00B4951F8242090470134F7E707
