:400000000010002011000000D5050000D505000080B500AF00F0E2FA80B584B000AF021CFB1D1A70224A3B1C0B3312781A70214A3B1C0A3312781A701F4B1B68013BFB6097
:400040001AE01E4B1868391C0B31FA68131C5B009B18C31801331B780B70184B1868391C0A31FA68131C5B009B18C31802331B780B70FB68013BFB60FB68002B0ADB0F4B59
:400080001968FA68131C5B009B185B5CFA1D12789A42D6D90A4B3A1C0B3212781A60094B3A1C0A3212781A60BD4604B080BDC046CCF1FF0FCDF1FF0FC01D0000CC0000200D
:4000C0001CFF0B4020FF0B4080B500AF1E4B1E4A12688021C9020A431A601820FFF79CFF1A4B19221A60052000F08EFB184B194A1278D2B21A60052000F054FC124B124AE1
:400100001168154A0A401A60144B20221A60144B20221A60134B10221A60134B30221A60124B822212061A60114B802212061A60104B114A1A60114B114A1A60114B124A7D
:400140001A60BD4680BDC04600010B402CFF0B4028FF0B40E5F1FF0FFFFFFBFF080202400C0202401C0202403002024008010B4004010B40000002400B000080400002404C
:40018000CF000080800002403801008080B586B000AF72B6664B01221A703B1C173300221A7026E03B1C17331A78131C5B009B185B00604A9B183B613B691A7859780902AC
:4001C0000A43997809040A43DB781B0613431A1C3B6919795B791B020B439BB2101C191C00F07CFA3B1C17333A1C1732127801321A703B1C17331B78012BD3D93B1C17338A
:4002000000221A7038E03B1C17331A78131C9B009B185B00484A9B18FB60FB681A78597809020A43997809040A43DB781B061343BB60FB681A79597909020A4399790904A2
:400240000A43DB791B0613437B60BA1CFB68197A5B7A1B020B431380BB1C1B88B9687A68081C111C1A1C00F049FA3B1C17333A1C1732127801321A703B1C17331B78002BCF
:40028000C1D02E4A2E4B101C191C00F049FA2D4B802252001A802C4B01221A702B4BC02292031A602A4B2B4A1A602B4B20221A602A4BC42292021A60294B0B221A60294B09
:4002C0000B221A60284B02221A60284B284A1A60284B294A1A60294B802292041A60284B802212051A60274B992212041A60264B992212041A60254B01221A60244B0222A2
:400300001A60244B234A1278D2B202210A43D2B21A70204B1F4A1278D2B206210A43D2B21A70FFF7D1FE00F03BFABD4606B080BD1C700F40141B0000201B00002C1B00000B
:400340004C1B000000600F4002600F40000001400C00014099EE0000000004400800044000020440180204400003044008030440B10D000000500F400400990004500F403A
:4003800008500F4020500F4030500F402000004000800F4000700F4010B5064C2378002B07D10548002802D0044800E000BF0121217010BD4801002000000000FC1A000034
:4003C00008B5084B002B03D00748084900E000BF07480168002903D0064A002A00D0904708BDC04600000000FC1A00004C010020C80000200000000080B500AF00F0D8FBFE
:4004000000F0EAFC022000F0F5FCBD4680BDC04680B582B000AF7860022000F0EBFC002000F00CFD031C9AB27B681A80012000F005FD031C9AB27B685A80022000F0FEFC6E
:40044000031C9AB27B689A80BD4602B080BDC04690B585B002AF786039603B68181C00213C2200F03EFF7B681B881A1C7B685B88796889880C1C38680649009400F03AFFB5
:400480003B68181C00F058FF031C181CBD4603B090BDC046041B000080B500AF62B6FFF7ABFF00F031F800F045F8FA235B00181C00F054FA00E0C04600F044F80F4B1B78D8
:4004C000012B02D100F060F8F5E70C4B1B78002BF1D10B4B181CFFF79BFF094A094B101C191CFFF7B5FF074B181C00F015F8FA235B00181C00F032FADDE7C0467C01002084
:40050000C00100208001002080B500AF00F0C0FA00F072FABD4680BD80B582B000AF78607B68181C00F02AFB0D2000F09BFABD4602B080BD80B500AF00F0C2FC00F0AEFC25
:40054000BD4680BD80B500AF00F016FD031C1A1C0B4B1A700A4B1B78422B08D1094B01221A7000F011F8074B00221A7006E0044B1B78002B02D1034B00221A70BD4680BDF9
:40058000BC0100207C01002080B582B000AF104B181CFFF7C1FFFB1D00221A7010E000F0CBFA021CFB1D1A70FB1D1B78242B02D10D2000F007FDFB1D1B78181C00F002FD81
:4005C000FB1D1B783E2BEAD1BD4602B080BDC046101B000080B500AFFEE7C04680B586B000AF254B7B61254B3B61234B7B61234B3B6132E03B691B68FB603B695B68BB605E
:400600003B699B683B6000237B600CE0FB681A68BB681A60BB680433BB60FB680433FB607B6804337B607A683B689A42EED13B69DB683B6000237B6008E0BB6800221A6066
:40064000BB680433BB607B6804337B607A683B689A42F2D13B6910333B617B695A1E9341DBB27A69013A7A61002BC3D100F00AFEFFF712FFFEE7C04601000000301E0000BB
:4006800080B582B000AF00237B600FE07B68032B04D80E4B7A689200D35800E00C4B0D4A796889008B507B6801337B607B682F2BECD9FFF76BFD084B00221A608023DB05BB
:4006C00001221A60BD4602B080BDC04600000000D505000000000020C000002080B582B000AF786039607A683B68101C00211A1C00F0F7FDBD4602B080BDC04680B584B0B7
:4007000000AFF860B9607A60F968BA687B68081C111C1A1C00F0DCFDBD4604B080BDC04680B586B000AF7860396000233B6100237B612EE07B699B007A68D3181B68BB60CE
:400740003B1C0F33BA681A70BB68FF229343BB6017E03B695B003A68D3181B781A1CBB68D3183A69520039688A1852781A703B6901333B613B1C0F333A1C0F321278013AB0
:400780001A703B1C0F331B78002BE2D17B6901337B617B69072BCDD9BD4606B080BDC04680B500AF054B0B221A60054B0B221A60012000F007F8BD4680BDC04600031A4074
:4007C00040031A4080B584B000AF021CFB1D1A700B4B1B68FB60FB1D1B78002B05D0FB68802212061343FB6003E0FB685B005B08FB60034BFA681A60BD4604B080BDC04654
:4008000080031A40000000000230800804D0C0460138FDD1C046C0467047EFF3108072B6704780F31088704780B584B000AF021C3960FB1D1A7080239B05FB60FB1D1B78B0
:400840001F2B02D9002000F07FF8FB1D1B7810339B00FA68D3181B68BB60FB1D1B7810339B00FA68D3183A681A60BB68181CBD4604B080BD90B587B000AF0A1CFB1D011C95
:400880001970BB1D1A70BB1D1B78032B02D9002000F05AF8FB1D1B781F2B02D9002000F053F8FB1D1A7803231340DB0006337B613C1C1334FFF7B1FF031C2370FB1D1B7897
:4008C0009B08DBB29B0014495B181B68FB607B690322111C99400B1CDA43FB681340FB60BB1D1A787B69111C99400B1CFA681343FB60FB1D1B789B08DBB29B00064A9B1814
:40090000FA681A603B1C13331B78181CFFF789FFBD4607B090BDC04600E400E080B582B000AF021CFB1D1A70064BFA1D11781F220A400121081C9040021C1A60BD4602B073
:4009400080BDC04600E100E080B582B000AF021CFB1D1A7001BEBD4602B080BD80B582B000AF786008E00C4B1B68181CFFF74CFF7B680A4A9B187B607A6880231B029A4284
:40098000F1D8074B1B687A685343181CFFF73CFFBD4602B080BDC046DC0000200080FFFFD400002080B582B000AF021CBB1D1A80BB1D1B88044A12785343181CFFF724FF7A
:4009C000BD4602B080BDC046D800002080B500AF00F05EF8BD4680BD80B500AF054B054A1268802109060A431A6000F017F8BD4680BDC0460000074080B500AF064B1B78D5
:400A0000002B04D1044B01221A70FFF7DFFFFFF7E3FFBD4680BDC0466401002080B500AFBD4680BD80B582B000AF00237B60044B1B687B607B68181CBD4602B080BDC0464F
:400A40004003074080B582B000AF054B1A680F2313407B607B68181CBD4602B080BDC0460803074080B582B000AF7860C046064B1A680F231340082BF9D0044B7A681A6050
:400A8000BD4602B080BDC046080207404002074080B500AF174B184A1A60184B00221A60174B01221A60174B174A1A60174B07221A60174B00221A60164B01221A60164BA5
:400AC000114A1A60154B00221A60154B00221A60144B00221A60144B00221A60134B00221A60134B00221A60124B00221A60BD4680BDC046000007400B0000024000074025
:400B00004800074000030740070000800403074010030740440007400002074004020740880E0740C80E0740480F0740080F0740C80F0740880F074080B582B000AF002361
:400B40007B60FFF77FFF031C002B03D0FFF76AFF031C7B60084B1A68D8239B00134005D000237B60044BD82292001A607B68181CBD4602B080BDC046C00F074080B584B03C
:400B800000AF78600023FB6009E07A68FB68D3181B78181CFFF766FFFB680133FB607A68FB68D3181B78002BEFD1BD4604B080BD80B500AF064B1B78002B04D100F00AF8A7
:400BC000034B01221A7000F0F7F8BD4680BDC0466C01002090B585B000AF0E200321FFF749FE5A4B0E20191CFFF71EFE584B07221A60584B584A1A60584B594A1A60594B0D
:400C0000594A1A60594B00221A60594B594A1A60594B584A1A60594B584A1268802149020A431A60564B564A1268802149020A431A60544B00221A60534B00221A60534BE2
:400C400001221A60524B02221A60524B1B687B607B68012213437B604E4B7A681A600023FB606DE04C4BFA689200D258DC239B0113407B60494AFB68D3181B787A68134380
:400C80007B60FB689B00464A9B187A681A60424BFA689200D258012313400AD0394B394A1168FA680120041C9440221C92B20A431A60394BFA689200D258022313400AD08C
:400CC000314B314A1168FA680120041C9440221C92B20A431A60304BFA689200D25880239B00134003D080235B00BB6002E080235B01BB60284BFA689200D25880235B0023
:400D0000134005D1274BFA6852000021D15204E0244BFA6852000021D152BB68224A5343224A9B18181C224900F04AFA031C9BB219B2204BFA689200D150FB680133FB6015
:400D4000FB68022B8ED9BD4605B090BD810E000020001A4000001A407020001304001A408C00008018001A400000FF071C001A4010001A400400040014001A4000031A40DC
:400D800040031A4028021A4038021A4018021A40000F1A4030001A40C41D0000D01D000080001A40D401002010270000E40C0000C8190000C801002080B500AF054B054A06
:400DC0001268802109060A431A600A20FFF7EAFDBD4680BD00001A4080B500AF044B044A1268802149020A431A60BD4680BDC04604001A4080B584B000AF78600023FB60A1
:400E00007A680323134011D00B4B1A6801231340FB60FB68002B03D17A6802231340F3D1FB68002B02D0044B01221A60FB68181CBD4604B080BDC04610021A4080B584B09A
:400E400000AF78607B68022B02D90020FFF77CFD7B68022B08D87B689B00084A9B181B681B041B0CFB6001E00023FB60FB689BB21BB2181CBD4604B080BDC04680011A40F5
:400E800080B582B000AF044B1B687B60024B7A681A60BD4602B080BD10021A4080B500AF064B1B78002B04D100F00AF8034B01221A7000F02DF8BD4680BDC0466D010020CA
:400EC00080B500AF0C4B72221A700C4B20221A700B4B0020191CFFF7A7FC00200321FFF7C9FC084B07221A70074B48221A70074B02221A70BD4680BD80000F4081000F4008
:400F0000A110000023000F4033000F4082000F4090B583B000AFFC1DFFF77FFC031C2370124B124A1278D2B220210A43D2B21A700F4B0F4A1278D2B210210A43D2B21A7028
:400F40000C4B0C4A1278D2B210210A43D2B21A700020FFF7E3FC00F0D7F8FB1D1B78181CFFF75FFCBD4603B090BDC04690000F4091000F4092000F4080B582B000AFFB1D6F
:400F800000221A700D4ABB1D12781A70BB1D1A78202313400BD00A4AFB1D12781A70BB1D1A781E23134002D0FB1D00221A70FB1D1B78181CBD4602B080BDC04661000F40CC
:400FC00040000F4080B584B000AF021CFB1D1A703B1C0F332D4A12781A703B1C0E332C4A12781A703A1C0F323B1C0E3312781B789A420BD23B1C0F331A783B1C0E331B78E9
:40100000013BD31A5A425341DBB20AE03B1C0F331A783B1C0E331B78D31A313B5A425341DBB2002BD4D13A1C0E323B1C0F3312781B789A420BD1174B1B78DBB21A1C0423C1
:40104000134004D1144BFA1D12781A701BE03B1C0F331B78312B03D93B1C0F3300221A703B1C0F331B780D4AF91D0978D1543B1C0F333A1C0F32127801321A70034B3A1CC0
:401080000F3212781A70BD4604B080BD6F0100206E01002062000F4042000F40DC01002080B500AF16E0134B1B78DBB2312B02D9104B00221A70104B0E4A1278D2B20F49DA
:4010C0008A5CD2B21A700B4B1B78DBB20133DAB2084B1A70074B1B78DAB2094B1B789A4206D0084B1B78DBB21A1C04231340DAD0BD4680BD6E01002042000F40DC010020B5
:401100006F01002062000F4080B500AF044B044A1268802109060A431A60BD4680BDC04680000240002934D00123002210B488422CD301242407A14204D2814202D209014A
:401140001B01F8E7E400A14204D2814202D249005B00F8E7884201D3401A1A434C08A04202D3001B5C0822438C08A04202D3001B9C082243CC08A04202D3001BDC0822431B
:40118000002803D01B0901D00909E3E7101C10BC7047002801D00020C04307B4024802A14018029003BDC046D90000000029F0D003B5FFF7B9FF0EBC4243891A1847C046C1
:4011C000002941D010B4041C4C40A44601230022002900D54942002800D5404288422CD301242407A14204D2814202D209011B01F8E7E400A14204D2814202D249005B00C7
:40120000F8E7884201D3401A1A434C08A04202D3001B5C0822438C08A04202D3001B9C082243CC08A04202D3001BDC082243002803D01B0901D00909E3E7101C6446002C5F
:4012400000D5404210BC7047002806D003DB0020C043400801E08020000607B4024802A14018029003BDC046190000000029EBD003B5FFF7A7FF0EBC4243891A1847C046C6
:401280007047C04670B50E4B0E4D0024E81A85101E1CAC4204D0A100725890470134F8E700F0B4FD0849094A0E1C541AA5100024AC4204D0A300F05880470134F8E770BD20
:4012C000181E0000181E0000181E0000201E000010B50023934203D0CC5CC4540133F9E710BD00B58218031C934202D019700133FAE700BD0EB400B59CB01DAB02A904CBE8
:40130000822202900861920009488A810122886048615042074AC88110681D9A019300F06BF8029900230B701CB008BC03B01847FFFFFF7F440100200023C25C0133002ACF
:40134000FBD1581E70470000F7B501919168071C141C002940D190239289D80002423BD02568216963696E1A58000096C6180098F50FAB1901305D10A84201DB009D0235EC
:40138000381C53050FD5291C00F004FB061E13D02169009AFFF79CFFA7891649802239401143A18111E02A1C00F04AFB061E0CD1381C216900F0A6FA0C203860A58940265A
:4013C0003543A5810124604213E0009B6561F018ED1A26612060A560A668002E08DD694627680A793A70A3680137013B2760A3600020FEBD7FFBFFFFF0B5A1B0049007930D
:401400008B890E1C171C19060FD53269002A0CD1402100F0BFFA30603061002803D1049C0C262660D6E04020706108AD00212024302369616C76AB763C1C2278002A04D105
:40144000E01B069019D003970FE0252AF8D00134F3E70399321C09780498FFF775FF039A01320392013000D1AFE003990698CB1B8342EEDB0D9F3A180D922178002900D1FE
:40148000A3E001206A4600234742633201342B60EB606F60AB601370AB65504F2178381C052200F0C1FA002807D0C71B2B680120B840184328600134EFE72B68D90603D5FC
:4014C00068462021633001701A0703D56A462B276332177021782A2901D00B9B0EE0079A1068111D0791002801DB0B9004E0022247421343EF602B60013409E02078303834
:40150000092804D80A277B4301341B18F6E70B9323782E2B18D161782A2909D1079B02341A68191D0791002A0DDA012042420AE00134002220783038092804D80A277A43CF
:4015400001341218F6E70992254F2178381C032200F06AFA002806D02B68C21B4021914019432960013421781E4806222976671C00F05AFA002817D01B4800280BD128686D
:40158000079C0723C10501D5E41800E007349C430834079414E007AA00920498291C321C124B00E000BF07E007AC00940498291C321C0E4B00F08CF8059005994A1C04D0FC
:4015C0000D99059A8C180D9436E7B589690601D40D9801E00127784221B0F0BDD61D0000DC1D0000E01D00000000000049130000F7B5151C01930A698B6800900C1C934233
:4016000000DA131C201C2B6043300178002901D001332B602668B00602D52F6802372F602268062616401CD0261C4336377822683E1C731E9E4192061CD5A319181C40301C
:401640003021271CC17045373A784133DA70023610E0617E0098019A089FB847013006D00136E3682868191A8E42F2DBDCE7012040422CE00027B7420ADAE119433109788B
:401680000098019A089B98470130F0D00137F2E72B68256806212940E6680025042903D1F01AC743FD170540A2682669B24201DD931BED180027AF4208DAA17E0098019A78
:4016C000089EB0470130D2D00137F4E70020FEBDF0B50D1C8BB0433507930590069204950A7E0C1C109B6E2A00D1A8E012D8632A24D009D8002A00D1B1E0582A00D0C1E094
:4017000045310A707D4D51E0642A1FD0692A00D0B8E01BE0732A00D1A5E009D86F2A2BD0702A00D0AEE00A68202616430E6038E0752A21D0782A00D0A4E032E018680E1C12
:40174000051D1D600368423633709EE026681F68300606D4750604D5381D186000203D5E02E03D1D1D603D68644B002D3BDA04992D226D420A7036E027681E683D0605D41A
:40178000780603D5351D1D60358802E0311D196035685A4B207E039308276F281ED00A271CE0271C45377820554D38701A682668111D03951960300603D4750601D515885C
:4017C00000E01568F00702D520231E4326601027002D03D12668202086432660261C43360022327001E003930A276168A160002903DB2068042398432060002D02D1049E9B
:4018000000290ED0049E281C391CFFF7CFFC039A013E515C281C3170391CFFF783FC051EF1D1049B9A1B2261082F33D12768F80730D5606890422DDC013262602AE00868D1
:401840001E684969050606D4450604D5351D1D603368198003E0321D1A603768396000202061049E16E01E68311D19603668301CFFF762FD65682061A84200D92561236958
:40188000636004E0261C4236327001212161049F00223A7007990598009109AA211C069BFFF7A6FE01300CD0351C2269AB1B93420ADA29780598069A079FB84701350130C7
:4018C000F3D10122504217E02668B10705D4099BE068984210DA181C0EE00025E7680998391A8D42F3DA617E0598069A079EB0470130E6D00135F1E70BB0F0BDE71D00006A
:40190000F81D000030B5002940D004390B68002B00DAC9181E4A1368141C002B02D14B60116033E099420FD20D684A199A4205D110682B1855680B604D6000E04B602160BC
:4019400024E08A4203D8131C5A68002AF9D11D685C198C420BD10C682D1958191D60904214D1116852686C181C605A600EE08C4202D90C21016009E008680D18954203D199
:4019800014685268001908604A60596030BDC0467401002070B50323CD1C9D430835061C0C2D01D20C2501E0002D2DDB8D422BD31C4A1368111C1C1C002C12D02068421BB9
:4019C0000CD40B2A02D92260A41815E0A34202D166680E601CE065685D6019E0231C6468EAE7301C291C00F051F8421C0CD0C41C03218C43844201D1256009E0211A301C11
:401A000000F044F80130F7D10C243460002008E0201C0B300722211D9043431A01D05D42E55070BD7401002000B5C9B28218904204D003788B4202D00130F8E7002000BDC9
:401A4000F8B5061C0C1C151C002904D1111CFFF7A1FF041C18E0002A03D1FFF753FF2C1C12E000F025F8A8420ED2301C291CFFF791FF071E07D0211C2A1CFFF729FC301C11
:401A8000211CFFF73FFF3C1C201CF8BD38B5074C0023051C081C236000F014F8431C03D12168002900D0296038BDC0461002002004390B6800B5181F002B02DAC8581918E6
:401AC000081F00BD0A4A00B51368002B0CD018186946884202D81060181C00BD054B0C2201201A604342F7E7034B1360EFE7C0467801002010020020180200200000000075
:401B0000960000003A25642C25642C25640000004200000080300F40800300400F40000400300F40401D00008000000003000F4010300F4032310F4064320F4042330F40F3
:401B400008400F4005410F4002600F4080728138820F82018E01920299019A02B101B201B402BA80BE14BF01D418D804D904DB04DF01009403800501070209200A500D115E
:401B80000F8010801364180419221A101B581F6421202205230227402B9831283201361038283A023BC04011410949214B8051105A085D02670A68016914709472027324A0
:401BC0008361C09FC25EC40FCA07CC27CE0FD00BD20CD682D8300102040906F00739089C090C0A220B110C300E4C150D1603171018141D0D1F302480252426102701282C72
:401C00002AD13101321F34E03502373C3A203B803F114045410645EB46C0480B49FF4AFF4BFF4EF04F44500C54015604580459045A045B045F0166C06A406B028080872736
:401C400089089001920E95309703984499169A319D309F05A4E7A8E7A902AC22AE51B007B108B280B307B460B508B618B730B980BB08BE40BF41C001C610C705C818C9FF03
:401C8000CA07CBFFCC40CD20CEF0CF05D008D804D904DA04DF01E040E1A8E240E32000020404051007010A440D080F0811541610172018111A441D181E201F2020042140C0
:401CC000220D23202440268027092A102B082F2031103284368838243C043D013E30414047014D014E054F085010530856205C405D015E105F0867808440860487409154DD
:401D000094119640A001A440A610A940AB80C0E8C26AC467CA44CC5ECEE6D088D230D6F0D880080863206F028310C210D840DA80E6808702A702A808E210EC201001110132
:401D400041100000F3180C000008F300827F0000C30000040F00F0031C3CE3420000000008040080046700180C3C0041FF000000C0802C200F1F1C40008028200000000440
:401D80006305040001E0C0000AFFFFFF62A0F0410C0000000000021204040404000000010000000000004002001030100010101200000000000000000000000000000000E7
:401DC00004000000000400000014000000140000030100004300232D302B2000686C4C0065666745464700303132333435363738394142434445460030313233343536373F
:401E0000383961626364656600000000F8B5C046F8BC08BC9E467047C103000081060000F8B5C046F8BC08BC9E46704799030000401E0000C800002080000000D0000000D3
:401E400000000000C0F1FF0F00366E01C05D0000180000000000E02E0000000000000000000000000000000000000000000000000000000000000000D41D000000000000CA
:401E8000000000000000000000000000000000000000000000000000000000000000000000000000000000000000000000000000000000000000000000000000E000002022
:401EC00000000000000000000000000000000000000000000000000000000000000000000000000000000000000000000000000000000000000000000000000000000000E2
:401F000000000000000000000000000000000000000000000000000000000000000000000000000000000000000000000000000000000000000000000000000000000000A1
:401F40000000000000000000000000000000000000000000000000000000000000000000000000000000000000000000000000000000000000000000000000000000000061
:401F80000000000000000000000000000000000000000000000000000000000000000000000000000000000000000000000000000000000000000000000000000000000021
:0200000490303A
:02000000CB51E2
:0200000490402A
:200000000000000000000000000000000000000000000000000000000000000000000000E0
:0200000490501A
:0C000000000204C81193110104D1DCE4DB
:0200000490600A
:0100000001FE
:00000001FF