:400000000010002011000000390400003904000080B500AF00F014FA80B584B000AF021CFB1D1A70224A3B1C0B3312781A70214A3B1C0A3312781A701F4B1B68013BFB609F
:400040001AE01E4B1868391C0B31FA68131C5B009B18C31801331B780B70184B1868391C0A31FA68131C5B009B18C31802331B780B70FB68013BFB60FB68002B0ADB0F4B59
:400080001968FA68131C5B009B185B5CFA1D12789A42D6D90A4B3A1C0B3212781A60094B3A1C0A3212781A60BD4604B080BDC046CCF1FF0FCDF1FF0FCC160000CC00002008
:4000C0001CFF0B4020FF0B4080B500AF1E4B1E4A12688021C9020A431A601820FFF79CFF1A4B19221A60052000F0AEFA184B194A1278D2B21A60052000F05EFB124B124AB9
:400100001168154A0A401A60144B30221A60144B30221A60134B10221A60134B20221A60124B822212061A60114B802212061A60104B114A1A60114B114A1A60114B124A6D
:400140001A60BD4680BDC04600010B402CFF0B4028FF0B40E5F1FF0FFFFFFBFF080202400C0202401C0202403002024008010B4004010B40000002400B000080400002404C
:400180001700008080000240CF00008080B582B000AF72B6FB1D00221A7023E0FB1D1A78131C5B009B185B00344A9B183B603B681A78597809020A43997809040A43DB7868
:4001C0001B0613431A1C3B6819795B791B020B439BB2101C191C00F0B3F9FB1DFA1D127801321A70FB1D1B78012BD7D9244A254B101C191C00F0B4F9234BC02292051A605A
:40020000224B234A1A60234B80221A60224BC02212041A60214B0B221A60214B0B221A60204B02221A60204B204A1A60204B992212041A601F4B802212061A601E4B99220B
:4002400012041A601D4B992212041A601C4B1C4A1278D2B202210A43D2B21A70184B184A1278D2B206210A43D2B21A70FFF72CFF00F0B6F9BD4602B080BDC04618160000A7
:40028000241600003C160000000001400C00014099EE0000000004400800044000020440180204400003044008030440B10D000000500F4008500F4020500F4030500F4041
:4002C00000700F4010B5064C2378002B07D10548002802D0044800E000BF0121217010BD48010020000000000416000008B5084B002B03D00748084900E000BF0748016850
:40030000002903D0064A002A00D0904708BDC04600000000041600004C010020C80000200000000080B500AF00F00AFB00F01CFC022000F027FCBD4680BDC04680B582B0A3
:4003400000AF7860022000F01DFC002000F03EFC031C9AB27B681A80012000F037FC031C9AB27B685A80022000F030FC031C9AB27B689A80BD4602B080BDC04690B585B015
:4003800002AF786039603B68181C00213C2200F02CFD7B681B881A1C7B685B88796889880C1C38680649009400F028FD3B68181C00F046FD031C181CBD4603B090BDC04612
:4003C0000C16000080B500AF62B6FFF7ABFF00F01DF8FA235B00181C00F0CAF9094B181CFFF7ACFF074A084B101C191CFFF7C6FF054B181C00F012F8FA235B00181C00F0D8
:40040000B7F9EBE7B40100207801002080B500AF00F028FA00F0FAF9BD4680BD80B582B000AF78607B68181C00F070FA0D2000F003FABD4602B080BD80B500AFFEE7C04679
:4004400080B586B000AF254B7B61254B3B61234B7B61234B3B6132E03B691B68FB603B695B68BB603B699B683B6000237B600CE0FB681A68BB681A60BB680433BB60FB681A
:400480000433FB607B6804337B607A683B689A42EED13B69DB683B6000237B6008E0BB6800221A60BB680433BB607B6804337B607A683B689A42F2D13B6910333B617B6979
:4004C0005A1E9341DBB27A69013A7A61002BC3D100F05CFCFFF776FFFEE7C046010000003C17000080B582B000AF00237B600FE07B68032B04D80E4B7A689200D35800E0B1
:400500000C4B0D4A796889008B507B6801337B607B682F2BECD9FFF739FE084B00221A608023DB0501221A60BD4602B080BDC046000000003904000000000020C000002063
:4005400080B582B000AF786039607A683B68101C00211A1C00F049FCBD4602B080BDC04680B586B000AF7860396000233B6100237B612EE07B699B007A68D3181B68BB607E
:400580003B1C0F33BA681A70BB68FF229343BB6017E03B695B003A68D3181B781A1CBB68D3183A69520039688A1852781A703B6901333B613B1C0F333A1C0F321278013A72
:4005C0001A703B1C0F331B78002BE2D17B6901337B617B69052BCDD9BD4606B080BDC04680B500AF054B0B221A60054B0B221A60012000F007F8BD4680BDC04600031A4038
:4006000040031A4080B584B000AF021CFB1D1A700B4B1B68FB60FB1D1B78002B05D0FB68802212061343FB6003E0FB685B005B08FB60034BFA681A60BD4604B080BDC04615
:4006400080031A40000000000230800804D0C0460138FDD1C046C0467047EFF3108072B6704780F31088704780B584B000AF021C3960FB1D1A7080239B05FB60FB1D1B7872
:400680001F2B02D9002000F069F8FB1D1B7810339B00FA68D3181B68BB60FB1D1B7810339B00FA68D3183A681A60BB68181CBD4604B080BD90B587B000AF0A1CFB1D011C6D
:4006C0001970BB1D1A70BB1D1B78032B02D9002000F044F8FB1D1B781F2B02D9002000F03DF8FB1D1A7803231340DB0006337B613C1C1334FFF7B1FF031C2370FB1D1B7885
:400700009B08DBB29B0014495B181B68FB607B690322111C99400B1CDA43FB681340FB60BB1D1A787B69111C99400B1CFA681343FB60FB1D1B789B08DBB29B00064A9B18D5
:40074000FA681A603B1C13331B78181CFFF789FFBD4607B090BDC04600E400E080B582B000AF021CFB1D1A7001BEBD4602B080BD80B582B000AF786008E00C4B1B68181C7F
:40078000FFF762FF7B680A4A9B187B607A6880231B029A42F1D8074B1B687A685343181CFFF752FFBD4602B080BDC046DC0000200080FFFFD400002080B582B000AF021C74
:4007C000BB1D1A80BB1D1B88044A12785343181CFFF73AFFBD4602B080BDC046D800002080B500AF00F03EF8BD4680BD80B500AF054B054A1268802109060A431A6000F09D
:4008000017F8BD4680BDC0460000074080B500AF064B1B78002B04D1044B01221A70FFF7DFFFFFF7E3FFBD4680BDC0466401002080B500AFBD4680BD80B582B000AF7860CF
:40084000C046064B1A680F231340082BF9D0044B7A681A60BD4602B080BDC046080207404002074080B500AF174B184A1A60184B00221A60174B01221A60174B174A1A6044
:40088000174B07221A60174B00221A60164B01221A60164B114A1A60154B00221A60154B00221A60144B00221A60144B00221A60134B00221A60134B00221A60124B0022A0
:4008C0001A60BD4680BDC046000007400B000002400007404800074000030740070000800403074010030740440007400002074004020740880E0740C80E0740480F07409C
:40090000080F0740C80F0740880F074080B584B000AF78600023FB6009E07A68FB68D3181B78181CFFF788FFFB680133FB607A68FB68D3181B78002BEFD1BD4604B080BDFE
:4009400080B500AF064B1B78002B04D100F00AF8034B01221A7000F0F7F8BD4680BDC0466C01002090B585B000AF0E200321FFF7A1FE5A4B0E20191CFFF776FE584B0722C2
:400980001A60584B584A1A60584B594A1A60594B594A1A60594B00221A60594B594A1A60594B584A1A60594B584A1268802149020A431A60564B564A1268802149020A4355
:4009C0001A60544B00221A60534B00221A60534B01221A60524B02221A60524B1B687B607B68012213437B604E4B7A681A600023FB606DE04C4BFA689200D258DC239B0150
:400A000013407B60494AFB68D3181B787A6813437B60FB689B00464A9B187A681A60424BFA689200D258012313400AD0394B394A1168FA680120041C9440221C92B20A43A2
:400A40001A60394BFA689200D258022313400AD0314B314A1168FA680120041C9440221C92B20A431A60304BFA689200D25880239B00134003D080235B00BB6002E080233D
:400A80005B01BB60284BFA689200D25880235B00134005D1274BFA6852000021D15204E0244BFA6852000021D152BB68224A5343224A9B18181C224900F006F9031C9BB214
:400AC00019B2204BFA689200D150FB680133FB60FB68022B8ED9BD4605B090BD110C000020001A4000001A407020001304001A408C00008018001A400000FF071C001A40D1
:400B000010001A400400040014001A4000031A4040031A4028021A4038021A4018021A40000F1A4030001A40D0160000DC16000080001A40C801002010270000E40C00009A
:400B4000C8190000BC01002080B500AF054B054A1268802109060A431A600A20FFF72CFEBD4680BD00001A4080B500AF044B044A1268802149020A431A60BD4680BDC0466B
:400B800004001A4080B584B000AF78600023FB607A680323134011D00B4B1A6801231340FB60FB68002B03D17A6802231340F3D1FB68002B02D0044B01221A60FB68181C20
:400BC000BD4604B080BDC04610021A4080B584B000AF78607B68022B02D90020FFF7BEFD7B68022B08D87B689B00084A9B181B681B041B0CFB6001E00023FB60FB689BB23D
:400C00001BB2181CBD4604B080BDC04680011A4080B582B000AF044B1B687B60024B7A681A60BD4602B080BD10021A40002934D00123002210B488422CD301242407A142E1
:400C400004D2814202D209011B01F8E7E400A14204D2814202D249005B00F8E7884201D3401A1A434C08A04202D3001B5C0822438C08A04202D3001B9C082243CC08A042E2
:400C800002D3001BDC082243002803D01B0901D00909E3E7101C10BC7047002801D00020C04307B4024802A14018029003BDC046D90000000029F0D003B5FFF7B9FF0EBC1A
:400CC0004243891A1847C046002941D010B4041C4C40A44601230022002900D54942002800D5404288422CD301242407A14204D2814202D209011B01F8E7E400A14204D27A
:400D0000814202D249005B00F8E7884201D3401A1A434C08A04202D3001B5C0822438C08A04202D3001B9C082243CC08A04202D3001BDC082243002803D01B0901D00909F5
:400D4000E3E7101C6446002C00D5404210BC7047002806D003DB0020C043400801E08020000607B4024802A14018029003BDC046190000000029EBD003B5FFF7A7FF0EBC8C
:400D80004243891A1847C0467047C04670B50E4B0E4D0024E81A85101E1CAC4204D0A100725890470134F8E700F0B6FC0849094A0E1C541AA5100024AC4204D0A300F0589F
:400DC00080470134F8E770BD2417000024170000241700002C17000010B50023934203D0CC5CC4540133F9E710BD00B58218031C934202D019700133FAE700BD0EB400B55F
:400E00009CB01DAB02A904CB822202900861920009488A810122886048615042074AC88110681D9A019300F06BF8029900230B701CB008BC03B01847FFFFFF7F44010020E5
:400E40000023C25C0133002AFBD1581E70470000F7B501919168071C141C002940D190239289D80002423BD02568216963696E1A58000096C6180098F50FAB1901305D10EC
:400E8000A84201DB009D0235381C53050FD5291C00F004FB061E13D02169009AFFF79CFFA7891649802239401143A18111E02A1C00F04AFB061E0CD1381C216900F0A6FA1D
:400EC0000C203860A58940263543A5810124604213E0009B6561F018ED1A26612060A560A668002E08DD694627680A793A70A3680137013B2760A3600020FEBD7FFBFFFFDE
:400F0000F0B5A1B0049007938B890E1C171C19060FD53269002A0CD1402100F0BFFA30603061002803D1049C0C262660D6E04020706108AD00212024302369616C76AB76D7
:400F40003C1C2278002A04D1E01B069019D003970FE0252AF8D00134F3E70399321C09780498FFF775FF039A01320392013000D1AFE003990698CB1B8342EEDB0D9F3A1844
:400F80000D922178002900D1A3E001206A4600234742633201342B60EB606F60AB601370AB65504F2178381C052200F0C1FA002807D0C71B2B680120B840184328600134EF
:400FC000EFE72B68D90603D568462021633001701A0703D56A462B276332177021782A2901D00B9B0EE0079A1068111D0791002801DB0B9004E0022247421343EF602B6037
:40100000013409E020783038092804D80A277B4301341B18F6E70B9323782E2B18D161782A2909D1079B02341A68191D0791002A0DDA012042420AE00134002220783038B1
:40104000092804D80A277A4301341218F6E70992254F2178381C032200F06AFA002806D02B68C21B4021914019432960013421781E4806222976671C00F05AFA002817D06E
:401080001B4800280BD12868079C0723C10501D5E41800E007349C430834079414E007AA00920498291C321C124B00E000BF07E007AC00940498291C321C0E4B00F08CF877
:4010C000059005994A1C04D00D99059A8C180D9436E7B589690601D40D9801E00127784221B0F0BDE2160000E8160000EC16000000000000510E0000F7B5151C01930A6939
:401100008B6800900C1C934200DA131C201C2B6043300178002901D001332B602668B00602D52F6802372F602268062616401CD0261C4336377822683E1C731E9E419206F2
:401140001CD5A319181C40303021271CC17045373A784133DA70023610E0617E0098019A089FB847013006D00136E3682868191A8E42F2DBDCE7012040422CE00027B74212
:401180000ADAE119433109780098019A089B98470130F0D00137F2E72B68256806212940E6680025042903D1F01AC743FD170540A2682669B24201DD931BED180027AF42DE
:4011C00008DAA17E0098019A089EB0470130D2D00137F4E70020FEBDF0B50D1C8BB0433507930590069204950A7E0C1C109B6E2A00D1A8E012D8632A24D009D8002A00D1E9
:40120000B1E0582A00D0C1E045310A707D4D51E0642A1FD0692A00D0B8E01BE0732A00D1A5E009D86F2A2BD0702A00D0AEE00A68202616430E6038E0752A21D0782A00D0D3
:40124000A4E032E018680E1C051D1D600368423633709EE026681F68300606D4750604D5381D186000203D5E02E03D1D1D603D68644B002D3BDA04992D226D420A7036E010
:4012800027681E683D0605D4780603D5351D1D60358802E0311D196035685A4B207E039308276F281ED00A271CE0271C45377820554D38701A682668111D039519603006F5
:4012C00003D4750601D5158800E01568F00702D520231E4326601027002D03D12668202086432660261C43360022327001E003930A276168A160002903DB206804239843FD
:401300002060002D02D1049E00290ED0049E281C391CFFF7CFFC039A013E515C281C3170391CFFF783FC051EF1D1049B9A1B2261082F33D12768F80730D5606890422DDC23
:40134000013262602AE008681E684969050606D4450604D5351D1D603368198003E0321D1A603768396000202061049E16E01E68311D19603668301CFFF762FD65682061C3
:40138000A84200D925612369636004E0261C4236327001212161049F00223A7007990598009109AA211C069BFFF7A6FE01300CD0351C2269AB1B93420ADA29780598069A03
:4013C000079FB84701350130F3D10122504217E02668B10705D4099BE068984210DA181C0EE00025E7680998391A8D42F3DA617E0598069A079EB0470130E6D00135F1E7CF
:401400000BB0F0BDF31600000417000030B5002940D004390B68002B00DAC9181E4A1368141C002B02D14B60116033E099420FD20D684A199A4205D110682B1855680B6003
:401440004D6000E04B60216024E08A4203D8131C5A68002AF9D11D685C198C420BD10C682D1958191D60904214D1116852686C181C605A600EE08C4202D90C21016009E025
:4014800008680D18954203D114685268001908604A60596030BDC0467001002070B50323CD1C9D430835061C0C2D01D20C2501E0002D2DDB8D422BD31C4A1368111C1C1C75
:4014C000002C12D02068421B0CD40B2A02D92260A41815E0A34202D166680E601CE065685D6019E0231C6468EAE7301C291C00F051F8421C0CD0C41C03218C43844201D118
:40150000256009E0211A301C00F044F80130F7D10C243460002008E0201C0B300722211D9043431A01D05D42E55070BD7001002000B5C9B28218904204D003788B4202D0CA
:401540000130F8E7002000BDF8B5061C0C1C151C002904D1111CFFF7A1FF041C18E0002A03D1FFF753FF2C1C12E000F025F8A8420ED2301C291CFFF791FF071E07D0211CD6
:401580002A1CFFF729FC301C211CFFF73FFF3C1C201CF8BD38B5074C0023051C081C236000F014F8431C03D12168002900D0296038BDC046D001002004390B6800B5181FD7
:4015C000002B02DAC8581918081F00BD0A4A00B51368002B0CD018186946884202D81060181C00BD054B0C2201201A604342F7E7034B1360EFE7C04674010020D0010020A1
:40160000D801002000000000960000003A25642C25642C256400000000300F40000400400F40000431300F400F310F4002330F4002400F4001410F4002600F40403041048D
:4016400049FF4AFF4BFF4DA04F0450185A045F01604062C06440654066C068C06AC06CC06EC09A02AE03B002B201C030C104C501C602C805C9FFCAFFCBFFCDAFCE0FCF0403
:40168000D018D280D804DA04DB04DF01E040E2C0E440E540E6C0E8C0EAC0ECC0EEC00F0817801C101D081F0140104280450846804F0856807780C240C480D0C3B701EA40F7
:4016C0006308D840B70401011001000004000000000400000014000000140000030100004300232D302B2000686C4C00656667454647003031323334353637383941424360
:40170000444546003031323334353637383961626364656600000000F8B5C046F8BC08BC9E467047ED020000E5040000F8B5C046F8BC08BC9E467047C502000050170000E6
:40174000C800002080000000900000000000000000000000C0F1FF0F00366E01C05D0000180000000000E02E000000000000000000000000000000000000000000000000CA
:401780000000000000000000E01600000000000000000000000000000000000000000000000000000000000000000000000000000000000000000000000000000000000033
:4017C000000000000000000000000000E0000020000000000000000000000000000000000000000000000000000000000000000000000000000000000000000000000000E9
:4018000000000000000000000000000000000000000000000000000000000000000000000000000000000000000000000000000000000000000000000000000000000000A8
:401840000000000000000000000000000000000000000000000000000000000000000000000000000000000000000000000000000000000000000000000000000000000068
:401880000000000000000000000000000000000000000000000000000000000000000000000000000000000000000000000000000000000000000000000000000000000028
:4018C00000000000000000000000000000000000000000000000000000000000000000000000000000000000000000000000000000000000000000000000000000000000E8
:0200000490303A
:02000000B50D3C
:0200000490402A
:200000000000000000000000000000000000000000000000000000000000000000000000E0
:0200000490501A
:0C000000000204C81193110104CFC6A037
:0200000490600A
:0100000001FE
:00000001FF